:100000000C9434000C9451000C9451000C94510049
:100010000C9451000C9453000C9451000C9451001A
:100020000C9451000C9451000C9451000C9451000C
:100030000C9451000C9451000C9451000C945100FC
:100040000C9451000C9451000C9451000C945100EC
:100050000C9451000C9451000C9451000C945100DC
:100060000C9451000C94510011241FBECFEFD8E026
:10007000DEBFCDBF11E0A0E0B1E0ECE1F3E002C0F3
:1000800005900D92AE31B107D9F721E0AEE1B1E0B4
:1000900001C01D92A032B207E1F70E9471000C94DA
:1000A0008C010C9400001F920F920FB60F92112436
:1000B0008F939F9380911E0190911F0101969093C1
:1000C0001F0180931E01579A82E08A95F1F700C0C4
:1000D0005798DA9A9F918F910F900FBE0F901F90B3
:1000E00018950E94A00080E091E00E94B90085B7B9
:1000F000806185BF5F9AE8E6F0E08081846080835C
:10010000EDE6F0E080818068808310921F011092FC
:100110001E01579A78942FE788E391E021508040A0
:100120009040E1F700C00000F89480911E0190918A
:100130001F010E94CF008AE191E00E94B900E5CF43
:100140001092C50083E38093C400E0ECF0E080816E
:100150008D7F808388E18093C10086E08093C20018
:100160000895E0ECF0E0908195FFFDCF8093C6000C
:1001700008950F931F93CF93FC018081882359F03A
:100180008F01C0E00E94B100CF5FF801EC0FF11DBC
:1001900080818111F7CFCF911F910F9108950F9317
:1001A0001F93CF93DF938C019C01329522952F7082
:1001B00023273F702327A7E4B3E00E947D01969593
:1001C00087959695879596958795805D0E94B10055
:1001D0009801369527953695279536952795A5EC60
:1001E000B0E20E947D01AC01529542954F704527C7
:1001F0005F7045279A01ADECBCEC0E947D0196959D
:10020000879596958795969587959C01220F331F24
:10021000880F991F880F991F880F991F820F931FAE
:100220009A01281B390BC901805D0E94B100980119
:100230003695279536952795ABE7B4E10E947D0169
:10024000AC01569547959A01ADECBCEC0E947D013E
:100250009695879596958795969587959C01220FFB
:10026000331F880F991F880F991F880F991F820FBE
:10027000931F9A01281B390BC901805D0E94B100B0
:100280009801ADECBCEC0E947D01EC01D695C795C0
:10029000D695C795D695C7959E010E947D019695E6
:1002A000879596958795969587959C01220F331F84
:1002B000880F991F880F991F880F991F820F931F0E
:1002C0009E01281B390BC901805D0E94B100CE013F
:1002D000880F991FCC0FDD1FCC0FDD1FCC0FDD1F4A
:1002E000C80FD91FC8018C1B9D0B805D0E94B100F7
:1002F000DF91CF911F910F910895A29FB001B39FFD
:10030000C001A39F700D811D1124911DB29F700D1E
:0C031000811D1124911D0895F894FFCF69
:10031C003D3D5B53656E736F7220706F6A656D6ED9
:0E032C006F9C63696F77795D3D3D0D0A00009F
:00000001FF
