S00E0000626C696E6B302E73726563D6
S11300000C9434000C943E000C943E000C943E007E
S11300100C943E000C943E000C943E000C943E0064
S11300200C943E000C943E000C943E000C943E0054
S11300300C943E000C943E000C943E000C943E0044
S11300400C943E000C943E000C943E000C943E0034
S11300500C943E000C943E000C943E000C943E0024
S11300600C943E000C943E0011241FBECFEFD8E048
S1130070DEBFCDBF0E9440000C945C000C940000D5
S113008084B1866084B985B1866085B92FEF89E62D
S113009098E1215080409040E1F700C0000085B114
S11300A0897F85B92FEF89E698E1215080409040FF
S10F00B0E1F700C00000E7CFF894FFCF98
S9030000FC
