:100000000C9434000C943E000C943E000C943E0082
:100010000C943E000C943E000C943E000C943E0068
:100020000C943E000C943E000C943E000C943E0058
:100030000C943E000C943E000C943E000C943E0048
:100040000C943E000C943E000C943E000C943E0038
:100050000C943E000C943E000C943E000C943E0028
:100060000C943E000C943E0011241FBECFEFD8E04C
:10007000DEBFCDBF0E9440000C9442000C940000F3
:080080000E94193FF894FFCF24
:107E000019C008959091C00095FFFCCF8093C600E3
:107E100008958091C00087FFFCCF8091C60008952F
:107E20000E94093F803211F00C9400008BE30C9407
:107E3000023F00C011248091C00082608093C00086
:107E40008091C10088618093C1008091C2008660EA
:107E50008093C2008CE08093C40082E60E94023FBF
:107E6000EE24E39495E0D92E21E1C22E0E94093F31
:107E7000873499F40E94093F182F0E94103F113354
:107E800021F481E00E94023F79C0103309F076C0EE
:107E900081E00E94023F88E072C0813449F40E9470
:107EA000093FC82F0E94093FD82FCC0FDD1F64C0A7
:107EB000813651F40E94103F82E00E94023F8C2FD5
:107EC0000E94023F8D2F5BC0803509F02FC00E94B9
:107ED000093F0E94093FF82E00E011E00E94093F8F
:107EE000F80181938F01FE12F9CF0E94103F80E0CC
:107EF0000E94023F83E0FE0187BFE89507B600FCC1
:107F0000FDCFA0E0B1E0FE018D919D910C01E7BE97
:107F1000E89511243296FA12F7CFFE01D7BEE89504
:107F200007B600FCFDCFC7BEE8952BC08235A9F48B
:107F30000E94093F0E94093FF82E0E94103F8F2D9A
:107F40000E94023F8E01F80185918F010E94023F3D
:107F50008F2DFA948111F7CF14C0833569F40E94F4
:107F6000103F83E00E94023F8EE10E94023F85E9BC
:107F70000E94023F8FE003C00E94103F80E00E94F9
:0A7F8000023F8AE30E94023F71CF26
:00000001FF
