:100000000C9435000C9461000C9461000C94610018
:100010000C9461000C9461000C9461000C946100DC
:100020000C9461000C9461000C9461000C946100CC
:100030000C9461000C9461000C9461000C946100BC
:100040000C9461000C9461000C9461000C946100AC
:100050000C9461000C9461000C9461000C9461009C
:100060000C9461000C946100C60211241FBECFEFF6
:10007000D8E0DEBFCDBF11E0A0E0B1E0E8E5F9E0F7
:1000800002C005900D92A231B107D9F721E0A2E19B
:10009000B1E001C01D92AF38B207E1F710E0C5E34F
:1000A000D0E004C02197FE010E94A404C433D1070C
:1000B000C9F7189902C00C94003F0E941B020C94CF
:1000C000AA040C940000209A80EA8A95F1F72098FF
:1000D0008AE18A95F1F700C00895209A80E18A9517
:1000E000F1F720988AEA8A95F1F700C00895209ADE
:1000F0008FEB93E00197F1F700C0000020989AEB96
:100100009A95F1F700C083B1E3E3F3E03197F1F79B
:1001100000C00000809581700895209A80E18A9542
:10012000F1F7209898E19A95F1F783B192E99A95C1
:10013000F1F700C081700895CF93DF93D82FC8E006
:10014000D0FF03C00E946D0002C00E946300D695DC
:10015000C150B1F7DF91CF9108950F931F93CF93C3
:10016000DF9318E000E0C02FD0E0D595C7950C2FA5
:100170000E948D00811100681150A9F7802FDF9136
:10018000CF911F910F91089598E0282F262720FDE9
:1001900003C07695679505C028E162277695679537
:1001A00060688695915089F7862F08950E947700A0
:1001B0008CEC0E949C0084E40E949C000895CF92E5
:1001C000DF92EF92FF920F931F93CF93DF93CDB700
:1001D000DEB729970FB6F894DEBF0FBECDBF0E94E1
:1001E00077008CEC0E949C008EEB0E949C00CE015C
:1001F00001967C016E019AE0C90ED11C87010E9414
:10020000AD00F80181938F01CE16DF06C1F78E0194
:10021000075F1F4F60E070E0F70181917F010E944E
:10022000C400682F70E0E016F106B1F7898590E010
:100230006817790779F469817A81072E000C880B99
:10024000990B0E94AB0320E030E040E85DE30E94A0
:100250000F0404C060E070E08AEA92E429960FB6C9
:10026000F894DEBF0FBECDBFDF91CF911F910F91EC
:10027000FF90EF90DF90CF900895CF92DF92EF92B2
:10028000FF920F931F93CF93DF9300D000D01F9264
:10029000CDB7DEB76C01DE01119695E0FD0111923C
:1002A0009A95E9F7219A299AFFEF20E782E0F15029
:1002B00020408040E1F700C000002998AFE9BCE889
:1002C0001197F1F700C00000299A2198BAE6BA9573
:1002D000F1F700C0199957C0E5EDEA95F1F7000074
:1002E000199B53C0F5EDFA95F1F700008E010F5FF1
:1002F0001F4F7E0126E0E20EF11CE1E0F0E047E056
:1003000050E090E029EC30E0199904C02150310907
:10031000D9F73DC080E58A95F1F7199B08C09F0188
:10032000042E02C0220F331F0A94E2F7922B29EC0D
:1003300030E0199B04C021503109D9F72AC041503F
:10034000510900F7D8019D938D01EA16FB06B9F615
:10035000219A299ABFEFE0E7F2E0B150E040F04087
:10036000E1F700C0000029813B818A81820F830F61
:100370009C81890F9D8189130EC0D6013C93FB019E
:10038000208380E009C08FEF07C08FEF05C08FEF9B
:1003900003C08FEF01C08FEF0F900F900F900F9061
:1003A0000F90DF91CF911F910F91FF90EF90DF9011
:1003B000CF900895CF93DF931F92CDB7DEB7198208
:1003C000BC01CE0101960E943D010F90DF91CF91BB
:1003D000089584E70E948B0380911201811106C069
:1003E0000E94D60081E08093120108950E948D0042
:1003F000882381F00E94DF0060938B0170938C0151
:1004000080938D0190938E010E94D60087E591E044
:100410000E945403089588E60E948B038AE891E0C5
:100420000E94DA0185E391E00E945403089580E779
:100430000E948B030895C2E0CF938DB79EB7829739
:100440000FB6F8949EBF0FBE8DBFADB7BEB7119665
:1004500082E2E7E5F1E001900D928A95E1F787E508
:1004600091E00E946D038DB79EB783960FB6F89406
:100470009EBF0FBE8DBFCF938DB79EB782970FB62D
:10048000F8949EBF0FBE8DBFADB7BEB7119682E286
:10049000E5E3F1E001900D928A95E1F785E391E0C3
:1004A0000E946D038DB79EB783960FB6F8949EBFDA
:1004B0000FBE8DBFC1E0CF938DB79EB782970FB6A9
:1004C000F8949EBF0FBE8DBFADB7BEB7119682E246
:1004D000E7E5F1E001900D928A95E1F783E191E083
:1004E0000E946D038DB79EB783960FB6F8949EBF9A
:1004F0000FBE8DBFCF938DB79EB782970FB6F8947E
:100500009EBF0FBE8DBFADB7BEB7119682E2E5E3C9
:10051000F1E001900D928A95E1F783E191E00E946C
:100520006D038DB79EB783960FB6F8949EBF0FBE2E
:100530008DBF0E947A0380E091E00E94930387E5DB
:1005400091E00E946503811102C00E94E90185E3E8
:1005500091E00E946503811102C00E940B0287E5B1
:1005600091E00E946503882351F385E391E00E94A6
:100570006503882321F387E591E00E945D0385E30D
:1005800091E00E945D030E941702D9CF89E791E0B4
:100590000E941B038DB79EB741970FB6F8949EBF7C
:1005A0000FBE8DBFADB7BEB7119681E1E9E7F1E0AF
:1005B00001900D928A95E1F787E591E00E94310361
:1005C0008DB79EB741970FB6F8949EBF0FBE8DBFF3
:1005D000ADB7BEB7119681E1E9E7F1E001900D9268
:1005E0008A95E1F785E391E00E9431038DB79EB7CC
:1005F00082960FB6F8949EBF0FBE8DBF41970FB67F
:10060000F8949EBF0FBE8DBFADB7BEB7119681E106
:10061000E9E7F1E001900D928A95E1F783E191E03D
:100620000E9431038DB79EB741960FB6F8949EBFD6
:100630000FBE8DBF089520E1FC0111922A95E9F7C4
:10064000FC01108A0895FC019089903140F481E00A
:10065000890F808BE80FF11D31971082089580E09B
:1006600008950F931F93CF93DF93CDB7DEB78C011F
:100670000E941B0381E1FE013796D80101900D9283
:100680008A95E1F7C8010E942303D80151968C9303
:10069000F801729680E1DF011D928A95E9F7DF91FA
:1006A000CF911F910F910895FC012189820F911D17
:1006B000FC01319781E080830895FC012189820F3C
:1006C000911DFC01319710820895FC012189820F50
:1006D000911DFC01319780810895CF93DF93CDB7B1
:1006E000DEB72E89820F911D2FA1FC01218BDF9196
:1006F000CF9108951092C5008CE08093C400E0EC87
:10070000F0E080818260808388E18093C10086E090
:100710008093C2000895E0ECF0E0908195FFFDCF5A
:100720008093C60008950F931F93CF93FC0180819F
:10073000882359F08F01C0E00E948B03CF5FF8013E
:10074000EC0FF11D80818111F7CFCF911F910F9197
:100750000895E89409C097FB3EF4909580957095B4
:1007600061957F4F8F4F9F4F9923A9F0F92F96E9FD
:10077000BB279395F695879577956795B795F11172
:10078000F8CFFAF4BB0F11F460FF1BC06F5F7F4F0F
:100790008F4F9F4F16C0882311F096E911C0772321
:1007A00021F09EE8872F762F05C0662371F096E82A
:1007B000862F70E060E02AF09A95660F771F881FF9
:1007C000DAF7880F9695879597F9089557FD905811
:1007D000440F551F59F05F3F71F04795880F97FB05
:1007E000991F61F09F3F79F08795089512161306BF
:1007F0001406551FF2CF4695F1DF08C016161706EE
:100800001806991FF1CF8695710561050894089522
:10081000E894BB2766277727CB0197F908950E94B4
:1008200022040C9493040E94850438F00E948C04E6
:1008300020F0952311F00C947C040C948204112474
:100840000C9409040E94E60370F3959FC1F3950F81
:1008500050E0551F629FF001729FBB27F00DB11D44
:10086000639FAA27F00DB11DAA1F649F6627B00DD4
:10087000A11D661F829F2227B00DA11D621F739FBD
:10088000B00DA11D621F839FA00D611D221F749FCB
:100890003327A00D611D231F849F600D211D822F12
:1008A000762F6A2F11249F5750409AF0F1F0882339
:1008B0004AF0EE0FFF1FBB1F661F771F881F915066
:1008C0005040A9F79E3F510580F00C947C040C9495
:1008D00009045F3FE4F3983ED4F3869577956795D6
:1008E000B795F795E7959F5FC1F7FE2B880F911D90
:1008F0009695879597F9089597F99F6780E870E036
:1009000060E008959FEF80EC089500240A94161685
:10091000170618060906089500240A9412161306ED
:10092000140605060895092E0394000C11F488237B
:1009300052F0BB0F40F4BF2B11F460FF04C06F5F97
:100940007F4F8F4F9F4F0895EE0FFF1F0590F4913B
:08095000E02D0994F894FFCF9B
:100958007363686564756C657220746573740D0AD9
:0209680000008D
:00000001FF
