:100000000C94AB000C94C8000C94C8000C94C8006D
:100010000C94C8000C94C8000C94C8000C94C80040
:100020000C94C8000C94C8000C94C8000C94C80030
:100030000C94C8000C94C8000C94C8000C94C80020
:100040000C94C8000C94C8000C94C8000C94C80010
:100050000C94C8006E616E00696E660000407A10F4
:10006000F35A00A0724E18090010A5D4E80000E869
:100070007648170000E40B54020000CA9A3B0000C7
:1000800000E1F505000080969800000040420F0056
:100090000000A08601000000102700000000E80317
:1000A000000000006400000000000A0000000000E2
:1000B0000100000000002C76D888DC674F0823DFA1
:1000C000C1DFAE59E1B1B796E5E3E453C63AE65174
:1000D000997696E8E6C28426EB898C9B62ED407C9B
:1000E0006FFCEFBC9C9F40F2BAA56FA5F490055A37
:1000F0002AF75C936B6CF9676DC11BFCE0E40D475C
:10010000FEF520E6B500D0ED902E0300943577057E
:100110000080841E080000204E0A000000C80C3336
:100120003333330F986E12831141EF8D2114893BC5
:10013000E65516CFFEE6DB18D1844B381BF77C1D45
:10014000901DA4BBE424203284725E228100C9F198
:1001500024ECA1E53D2711241FBECFE5D8E0DEBF8A
:10016000CDBF10E0A0E6B0E0E0EFF3E102C0059003
:100170000D92AE36B107D9F720E0AEE6B0E001C08F
:100180001D92A837B207E1F70E9482010C94F6098C
:100190000C9400008E9A8FEE90E00197F1F700C06A
:1001A00000008E9895E39A95F1F7000008958E9AD5
:1001B00080E28A95F1F78E988FEF90E00197F1F742
:1001C00000C0000008958E9A8FE797E00197F1F73D
:1001D00000C000008E98E7E1F1E03197F1F700C030
:1001E000000080B3E7E6F6E03197F1F700C00000C9
:1001F00086FB882780F991E0892708958E9A80E20E
:100200008A95F1F78E98E0E3EA95F1F780B3EBED8C
:10021000F0E03197F1F700C0000086FB882780F9F5
:100220000895CF93DF93D82FC8E0D0FF03C00E947A
:10023000D70002C00E94CA00D695C150B1F7DF9125
:10024000CF910895CF93DF93D8E0C0E0C6950E9488
:10025000FE008111C068D150C9F78C2FDF91CF917A
:100260000895EF92FF920F931F93CF93DF93CDB733
:10027000DEB729970FB6F894DEBF0FBECDBF0E9440
:10028000E3008CEC0E94110184E40E9411012FEF25
:100290008EE994E2215080409040E1F700C00000D8
:1002A0000E94E3008CEC0E9411018EEB0E94110170
:1002B0008E010F5F1F4F7E01EAE0EE0EF11C0E94DF
:1002C0002201F80181938F01EE15FF05C1F76981C5
:1002D0007A81072E000C880B990B0E94EC0120E01C
:1002E00030E040E85DE30E94270229960FB6F894BB
:1002F000DEBF0FBECDBFDF91CF911F910F91FF9059
:10030000EF900895CF93DF93CDB7DEB728970FB660
:10031000F894DEBF0FBECDBF0E94C4010E94E3016E
:1003200006E610E06894992493F8CE0101965C01EA
:100330000E943101F62EE72ED82EC92E9F938F935F
:100340007F936F931F930F931F929F92BF92AF92D1
:100350000E942408C5010E94D401CF92DF92EF923F
:10036000FF921F930F930E940E089FEF2BE782E9E5
:10037000915020408040E1F700C000000FB6F89493
:10038000DEBF0FBECDBFD4CF88E18AB986E880BD7D
:1003900087E689B908955D9BFECF8CB908950E94C8
:1003A000CB0180E090E00895CF93DF93EC0188814A
:1003B000882331F021960E94CB0189918111FBCFD6
:1003C000DF91CF91089560E070E08FEC91E00E94A2
:1003D00087070895E89409C097FB3EF490958095AF
:1003E000709561957F4F8F4F9F4F9923A9F0F92FFB
:1003F00096E9BB279395F695879577956795B79579
:10040000F111F8CFFAF4BB0F11F460FF1BC06F5F5E
:100410007F4F8F4F9F4F16C0882311F096E911C070
:10042000772321F09EE8872F762F05C0662371F091
:1004300096E8862F70E060E02AF09A95660F771FA5
:10044000881FDAF7880F9695879597F908950E9487
:100450003A020C94AB020E949D0238F00E94A40262
:1004600020F0952311F00C9494020C949A0211241C
:100470000C94DF020E94BC0270F3959FC1F3950FAC
:1004800050E0551F629FF001729FBB27F00DB11D18
:10049000639FAA27F00DB11DAA1F649F6627B00DA8
:1004A000A11D661F829F2227B00DA11D621F739F91
:1004B000B00DA11D621F839FA00D611D221F749F9F
:1004C0003327A00D611D231F849F600D211D822FE6
:1004D000762F6A2F11249F5750409AF0F1F088230D
:1004E0004AF0EE0FFF1FBB1F661F771F881F91503A
:1004F0005040A9F79E3F510580F00C9494020C9453
:10050000DF025F3FE4F3983ED4F3869577956795D5
:10051000B795F795E7959F5FC1F7FE2B880F911D63
:100520009695879597F9089597F99F6780E870E009
:1005300060E008959FEF80EC089500240A94161659
:10054000170618060906089500240A9412161306C1
:10055000140605060895092E0394000C11F488234F
:1005600052F0BB0F40F4BF2B11F460FF04C06F5F6B
:100570007F4F8F4F9F4F089557FD9058440F551F41
:1005800059F05F3F71F04795880F97FB991F61F015
:100590009F3F79F087950895121613061406551F8C
:1005A000F2CF4695F1DF08C0161617061806991FF8
:1005B000F1CF86957105610508940895E894BB27ED
:1005C00066277727CB0197F90895A0E1B0E0EBEE1D
:1005D000F2E00C9462067C011B016A01FC011782A7
:1005E0001682838181FF44C39E012F5F3F4F3901F3
:1005F000F7019381F10193FD859193FF81911F0193
:10060000882309F431C3853239F493FD859193FF32
:1006100081911F01853239F4B70190E00E94D20721
:1006200056016501E5CF10E0512C912CFFE1F91541
:10063000D8F08B3279F038F4803279F08332A1F43B
:10064000F92DF0612EC08D3261F0803369F4292DCF
:1006500021602DC0392D3260932E892D8460982E13
:100660002AC0E92DE86015C097FC2DC020ED280FA9
:100670002A3088F496FE06C03AE0139F200D11241C
:10068000122F19C08AE0589E200D1124522EE92DF8
:10069000E0629E2E10C08E3231F496FCE5C2F92D38
:1006A000F0649F2E08C08C3621F4292D2068922EEC
:1006B00002C0883641F4F10193FD859193FF819149
:1006C0001F018111B3CF9BEB980F933020F4992D2C
:1006D0009061805E07C09BE9980F933008F066C177
:1006E000992D9F7E96FF16E09F73992E853619F4FB
:1006F0009064992E08C0863621F4392F3068932EE5
:1007000002C01111115097FE07C01C3350F444244D
:100710004394410E27E00BC0183038F027E017E073
:1007200005C027E09CE3492E02C0212F412C560131
:1007300084E0A80EB11CF6016081718182819381F1
:10074000042DA3010E9499066C01F981FC87F0FF3A
:1007500002C0F3FF06C091FC06C092FE06C000E294
:1007600005C00DE203C00BE201C000E08C858C7077
:1007700019F001115AC29BC297FE10C04C0CFC85A7
:10078000F4FF04C08A81813309F44A94141474F587
:1007900028E0241578F588E0482E2CC096FC2AC065
:1007A000812F90E08C159D059CF03CEFC3163FEF28
:1007B000D30674F0892D8068982E0AC0E2E0F0E03C
:1007C000EC0FFD1FE10FF11D8081803319F41150F2
:1007D0001111F4CF97FE0EC044244394410E812F93
:1007E00090E0C816D9062CF41C1904C04424439484
:1007F00001C010E097FE06C01C141D0434F4C601AD
:10080000019605C085E090E002C081E090E0011112
:100810000196112331F0212F30E02F5F3F4F820FDF
:10082000931F252D30E08217930714F4581A01C046
:10083000512C892D897049F4552039F0B70180E297
:1008400090E00E94D2075A94F7CF002329F0B70115
:10085000802F90E00E94D20793FC09C0552039F008
:10086000B70180E390E00E94D2075A94F7CF97FE39
:100870004CC04601D7FE02C0812C912CC6018819BC
:100880009909F301E80FF91FFE87ED8796012419F6
:100890003109388B2F87012F10E01195019511092F
:1008A0003FEF8316930629F4B7018EE290E00E9491
:1008B000D207C814D9044CF08F85988988159905FA
:1008C00024F4ED85FE85818101C080E3F1E08F1A7B
:1008D00091082D853E852F5F3F4F3E872D878016DF
:1008E00091062CF0B70190E00E94D207D9CFC8142E
:1008F000D90441F49A81963320F4953319F43C8558
:1009000034FF81E3B70190E04EC08A81813319F052
:100910009C859F7E9C87B70190E00E94D2071111B1
:1009200005C094FC18C085E690E017C0B7018EE2C0
:1009300090E00E94D2071E5F82E001E0080FF30101
:10094000E80FF11D8081B70190E00E94D207802F4F
:100950000113F3CFE6CF85E490E0B7010E94D20700
:10096000D7FC06C0C114D10441F4EC85E4FF05C0F6
:10097000D194C194D1088DE201C08BE2B70190E01F
:100980000E94D20780E32AE0C216D1042CF08F5FC8
:10099000FAE0CF1AD108F7CFB70190E00E94D20752
:1009A000B701C601C0960E94D20754C1833631F008
:1009B000833779F0833509F056C020C0560132E004
:1009C000A30EB11CF6018081898301E010E0630170
:1009D00012C05601F2E0AF0EB11CF601C080D1800A
:1009E00096FE03C0612F70E002C06FEF7FEFC6017B
:1009F0000E947C078C01F92DFF7714C0560122E07C
:100A0000A20EB11CF601C080D18096FE03C0612FFA
:100A100070E002C06FEF7FEFC6010E9471078C018A
:100A2000F92DF0689F2EF3FD1AC0852D90E0081770
:100A30001907A8F4B70180E290E00E94D2075A9407
:100A4000F4CFF60197FC859197FE81916F01B70174
:100A500090E00E94D20751105A94015011090115DB
:100A6000110579F7F7C0843611F0893661F5560122
:100A700097FE09C024E0A20EB11CF60160817181CD
:100A8000828193810AC0F2E0AF0EB11CF601608151
:100A90007181072E000C880B990BF92DFF769F2E84
:100AA00097FF09C090958095709561957F4F8F4F06
:100AB0009F4FF0689F2E2AE030E0A3010E94540867
:100AC000C82EC6183FC0092D853721F40F7E2AE0B5
:100AD00030E01DC0097F8F3691F018F4883559F049
:100AE000C3C0803719F0883711F0BEC0006104FF21
:100AF00009C0046007C094FE08C0066006C028E074
:100B000030E005C020E130E002C020E132E05601D3
:100B100007FF09C084E0A80EB11CF6016081718155
:100B20008281938108C0F2E0AF0EB11CF6016081B2
:100B3000718180E090E0A3010E945408C82EC6187D
:100B40000F77902E96FE0BC0092D0E7FC11650F424
:100B500094FE0AC092FC08C0092D0E7E05C0DC2C54
:100B6000092D03C0DC2C01C0D12E04FF0DC0FE01F5
:100B7000EC0DF11D8081803311F4097E09C002FF64
:100B800006C0D394D39404C0802F867809F0D39400
:100B900003FD11C000FF06C01C2DD51480F4150DF7
:100BA0001D190DC0D51458F4B70180E290E00E94E1
:100BB000D207D394F7CFD51410F45D1801C0512C8F
:100BC00004FF10C0B70180E390E00E94D20702FF4B
:100BD00017C001FD03C088E790E002C088E590E0FF
:100BE000B7010CC0802F867859F001FF02C08BE25C
:100BF00001C080E207FD8DE2B70190E00E94D207BC
:100C0000C11638F4B70180E390E00E94D20711507A
:100C1000F7CFCA94F301EC0DF11D8081B70190E08C
:100C20000E94D207C110F5CF15C0F4E0F51560F5AC
:100C300084E0581A93FE1FC0011127C02C8523FFA2
:100C40002AC004E510E0392D3071932EF80184910B
:100C5000811124C0552009F4E4CCB70180E290E072
:100C60000E94D2075A94F6CFF7018681978126C059
:100C70008FEF9FEF23C0B70180E290E00E94D20780
:100C80005A945110F8CFD8CF512CB701802F90E053
:100C90000E94D207D3CF08E510E0D5CF9110805243
:100CA000B70190E00E94D2070F5F1F4FCFCF23E024
:100CB000251510F483E0BDCF512CC0CF6096E2E142
:100CC0000C947E062F923F924F925F926F927F928A
:100CD0008F929F92AF92BF92CF92DF92EF92FF924C
:100CE0000F931F93CF93DF93CDB7DEB7CA1BDB0BF8
:100CF0000FB6F894DEBF0FBECDBF09942A8839889D
:100D000048885F846E847D848C849B84AA84B984A3
:100D1000C884DF80EE80FD800C811B81AA81B981AF
:100D2000CE0FD11D0FB6F894DEBF0FBECDBFED01C3
:100D30000895283008F027E03327DA01990F311D94
:100D400087FD916000966105710539F432602E5F70
:100D50003D9330E32A95E1F708959F3F30F08038C6
:100D60007105610509F03C5F3C5F3D93913008F0EF
:100D70008068911DDF93CF931F930F93FF92EF92A3
:100D8000192F987F9695E92F96959695E90FFF274D
:100D9000EA54FF4F99273327EE24FF24A701E701E8
:100DA00005900894079428F4360FE71EF81E491F93
:100DB000511D660F771F881F991F0694A1F7059094
:100DC000079428F4E70EF81E491F561FC11D770F20
:100DD000881F991F661F0694A1F70590079428F4B1
:100DE000F80E491F561FC71FD11D880F991F661F78
:100DF000771F0694A1F70590079420F4490F561F1A
:100E0000C71FD81F990F661F771F881F0694A9F761
:100E100084911095177041F0D695C79557954795D1
:100E2000F794E7941A95C1F7ECE5F0E06894159013
:100E3000159135916591959105907FE27395E11833
:100E4000F10A430B560BC90BD009C0F7E10CF11E98
:100E5000431F561FC91FD01D7EF4703311F48A95AD
:100E6000E6CFE894015030F0080F0AF4002702178B
:100E700008F4202F2395022F7A3328F079E37D930D
:100E80002A95E9F710C07D932A9589F606949795DF
:100E90006795379517951794E118F10A430B560B90
:100EA000C90BD00998F023957E9173957A3308F099
:100EB00070E37C932013B8F77E9170617D9330F0DE
:100EC000839571E37D9370E32A95E1F71124EF9008
:100ED000FF900F911F91CF91DF91992787FD9095FA
:100EE0000895FC010590615070400110D8F780957D
:100EF00090958E0F9F1F0895FC01615070400190E6
:100F00000110D8F7809590958E0F9F1F08950F932D
:100F10001F93CF93DF93009731F46115710519F496
:100F200080E090E03AC08B01EC016EE070E081E07F
:100F300090E00E94B208FC01892B91F380E8838342
:100F40000115110571F01387028781E88383809171
:100F50006E0090916F00892B21F4F0936F00E09365
:100F60006E002097C9F0D187C08783818260838318
:100F70008091700090917100892B71F4F093710051
:100F8000E09370008091720090917300892B21F49E
:100F9000F0937300E0937200CF01DF91CF911F9126
:100FA0000F9108950F931F93CF93DF93FB0123813C
:100FB00021FD03C08FEF9FEF2CC022FF16C046819A
:100FC0005781248135814217530744F4A081B181B0
:100FD0009D012F5F3F4F318320838C932681378182
:100FE0002F5F3F4F3783268314C08B01EC01FB0139
:100FF0000084F185E02D0995892BE1F6D80116963C
:101000008D919C911797019617969C938E931697A6
:10101000CE01DF91CF911F910F910895A0E0B0E034
:10102000E4E1F8E00C947206AE014B5F5F4FFA0109
:1010300061917191AF0180917000909171000E9457
:10104000E502E2E00C948E06AEE0B0E0EAE2F8E001
:101050000C9470060D891E898F89988D26E02C834B
:101060001A83098397FF02C080E090E801979E836E
:101070008D83AE01455E5F4F698D7A8DCE010196FD
:101080000E94E5024D815E8157FD0AC02F8138859F
:10109000421753070CF49A01F801E20FF31F108274
:1010A0002E96E4E00C948C06FA01AA27283051F120
:1010B000203181F1E8946F936E7F6E5F7F4F8F4F89
:1010C0009F4FAF4FB1E03ED0B4E03CD0670F781FE8
:1010D000891F9A1FA11D680F791F8A1F911DA11DCD
:1010E0006A0F711D811D911DA11D20D009F4689406
:1010F0003F912AE0269F11243019305D3193DEF6AE
:10110000CF010895462F4770405D4193B3E00FD063
:10111000C9F7F6CF462F4F70405D4A3318F0495D4E
:1011200031FD4052419302D0A9F7EACFB4E0A69531
:101130009795879577956795BA95C9F70097610553
:10114000710508959B01AC010A2E069457954795A9
:1011500037952795BA95C9F7620F731F841F951F9E
:10116000A01D08950F931F93CF93DF93869F800157
:10117000879F100D969F100D1124C8010E94CE0864
:10118000EC01009729F0A80160E070E00E94EF09EF
:10119000CE01DF91CF911F910F9108950F931F936F
:1011A000CF93DF938230910510F482E090E0E091DC
:1011B0007600F091770020E030E0A0E0B0E03097DA
:1011C00019F1408151810281138148175907C8F0F4
:1011D0008417950769F4109731F012960C931297C3
:1011E00013961C9327C0009376001093770022C0BB
:1011F0002115310519F04217530718F49A01BD0162
:10120000EF01DF01F801DBCF21153105F9F0281BD3
:10121000390B2430310580F48A819B816115710579
:1012200021F0FB019383828304C090937700809325
:101230007600FE01329644C0FE01E20FF31F819357
:10124000919322503109398328833AC02091740048
:1012500030917500232B41F420916200309163009E
:1012600030937500209374002091600030916100EC
:101270002115310541F42DB73EB7409164005091DE
:101280006500241B350BE0917400F0917500E217A6
:10129000F307A0F42E1B3F0B2817390778F0AC0199
:1012A0004E5F5F4F2417350748F04E0F5F1F509376
:1012B0007500409374008193919302C0E0E0F0E0E8
:1012C000CF01DF91CF911F910F910895CF93DF93BD
:1012D000009709F481C0FC01329713821282A09119
:1012E0007600B0917700109781F420813181820FD0
:1012F000931F20917400309175002817390751F51C
:10130000F0937500E093740067C0ED0120E030E0D9
:10131000CE17DF0740F44A815B819E0141155105DC
:10132000F1F0EA01F5CFD383C28340815181840F6C
:10133000951FC817D90759F488819981840F951F83
:101340000296918380838A819B8193838283211576
:10135000310529F4F0937700E09376003DC0E90170
:10136000FB83EA8349915991C40FD51FEC17FD0700
:1013700061F480819181840F951F0296E901998320
:101380008883828193819B838A83E0E0F0E01296D8
:101390008D919C911397009719F0FD01DC01F7CF17
:1013A0008D919C9111979D012E5F3F4F820F931F4E
:1013B00020917400309175002817390769F430972F
:1013C00029F4109277001092760002C013821282E4
:1013D000B0937500A0937400DF91CF910895DC0164
:1013E00001C06D9341505040E0F70895F894FFCF4D
:0E13F000000078002000252E32660D0A000055
:00000001FF
