S013000064687464735F74657374302E73726563AB
S11300000C943E000C945F000C945F000C945F0011
S11300100C945F000C945F000C9445040C945F00F6
S11300200C945F000C945F000C945F000C945F00D0
S11300300C945F000C945F000C945F000C945F00C0
S11300400C945F000C945F000C945F000C945F00B0
S11300500C945F000C945F000C945F000C945F00A0
S11300600C945F000C945F006A0D6A0D6A0DA90D73
S1130070940DA30D6A0D6A0DA90D940D11241FBED4
S1130080CFEFD8E0DEBFCDBF11E0A0E0B1E0EEE2FB
S1130090F7E202C005900D92A034B107D9F721E030
S11300A0A0E4B1E001C01D92A73DB207E1F71899A1
S11300B002C00C94003F0E940C020C9495130C9403
S11300C00000209A80EA8A95F1F720988AE18A95BF
S11300D0F1F700C00895209A80E18A95F1F72098FD
S11300E08AEA8A95F1F700C00895209A8FEB93E08D
S11300F00197F1F700C0000020989AEB9A95F1F768
S113010000C083B180958170E3E3F3E03197F1F7A8
S113011000C000000895209A80E18A95F1F72098A4
S113012098E19A95F1F783B192E99A95F1F700C0B5
S113013081700895CF93DF93D82FC8E0D0FF03C018
S11301400E946B0002C00E946100D695C150B1F7B5
S1130150DF91CF910895CF93DF93D8E0C0E0C695A7
S11301600E948B008111C068D150C9F78C2FDF9198
S1130170CF91089598E0282F262720FD03C0769577
S1130180679505C028E1622776956795606886952E
S1130190915089F7862F08950E9475008CEC0E9477
S11301A09A0084E40C949A00CF92DF92EF92FF922B
S11301B00F931F93CF93DF93CDB7DEB729970FB675
S11301C0F894DEBF0FBECDBF0E9475008CEC0E9478
S11301D09A008EEB0E949A008E010F5F1F4F6E01F2
S11301E08AE0C80ED11C78010E94AB00F70181930C
S11301F07F01EC15FD05C1F77E01F9E0EF0EF11C5E
S113020060E070E0F80181918F010E94BA00682FCC
S113021070E00E151F05B1F7898590E0681779071E
S113022079F469817A81072E000C880B990B0E945E
S1130230200E20E030E040E85DE30E94840E04C01C
S113024060E070E08AEA92E429960FB6F894DEBF83
S11302500FBECDBFDF91CF911F910F91FF90EF9013
S1130260DF90CF900895CF92DF92EF92FF920F9399
S11302701F93CF93DF9300D000D01F92CDB7DEB78A
S11302806C01FE01319685E0DF011D928A95E9F744
S1130290219A299ABFEF20E782E0B15020408040A4
S11302A0E1F700C000002998AFE9BCE81197F1F725
S11302B000C00000299A2198BAE6BA95F1F700C067
S11302C0199B02C08FEF50C025ED2A95F1F700006D
S11302D0199BF8CF85ED8A95F1F700008E010A5F2E
S11302E01F4FEE24E394F12C27E030E090E049EC3A
S11302F050E0199904C041505109D9F7E3CFA0E562
S1130300AA95F1F7199B07C0A701022E01C0440F5B
S11303100A94EAF7942B49EC50E0199B04C041502D
S11303205109D9F7CFCF2150310908F791930E170E
S11303301F07D1F6219A299AEFEFF0E722E0E15066
S1130340F0402040E1F700C0000089813B819A81A0
S1130350980F930F2C81920F2D819213B3CFD60156
S11303603C93FB01808380E00F900F900F900F90DF
S11303700F90DF91CF911F910F91FF90EF90DF903D
S1130380CF900895CF93DF931F92CDB7DEB7198234
S1130390BC01CE0101960E9433010F90DF91CF91F1
S11303A0089583E60E94BF0DC6E0D1E084E60E9472
S11303B0BF0D809141018823C9F3109241018091BE
S11303C0CA011F928F9320E030E04AE754E4609121
S11303D0C4017091C5018091C6019091C7010E942A
S11303E0840E0E94EF0D9F938F937F936F93DF93FF
S11303F0CF930E949B108DB79EB708960FB6F894C2
S11304009EBF0FBE8DBFD2CF0E94AE0D0E94E90DDC
S11304108FE091E00C94D60D8BECE82E81E0F82E61
S113042002E020E030E040E250E065E271E080E686
S113043092E00E948F0798ECE92E91E0F92E20E0DB
S113044030E040E250E06CE271E081ED91E00E9426
S11304508F078091C8019091C9010E945F0A0E9490
S113046004020E94D608FFCFCF93C0914001C1116E
S11304700AC0F8940E94CC007894809140018F5F68
S1130480809340011AC0F8940E948B00811103C02C
S11304907894C1E012C00E94D4006093C4017093A8
S11304A0C5018093C6019093C7018AEC91E00E9434
S11304B0C201789410924001C2E08C2FCF9108952C
S11304C081E60E94BF0DC1E00E943402823029F40B
S11304D082E70E94BF0DC093410182E60E94BF0DD6
S11304E08091C8019091C9010E94950880E090E034
S11304F00E945F0AE9CFCF93DF93EC010E940409C5
S1130500CE010E941F0FEC010E949809209711F45C
S11305100E949F02CE01DF91CF910895CF93DF9384
S1130520009751F0EC010E940409CE010E94B70F1C
S1130530DF91CF910C949809DF91CF910895259A7A
S11305402D9A2FE788E391E0215080409040E1F715
S113055000C000001D9AF5CF259A2D9A2FEF83ED48
S113056090E3215080409040E1F700C000001D9AC4
S1130570F5CFFC010396928381832FEF3FEF348301
S11305802383968385839087878310820895FC0153
S1130590118610860895CF93DF939C01FB01DC0143
S11305A01196CD91DC911297D383C2838C819D8166
S11305B0958384838C819D81DC0113967C936E9357
S11305C012977D836C8331872087F90180818F5F47
S11305D08083DF91CF9108950F931F93CF93DF937F
S11305E08C01FB01808191818F3F2FEF920721F4D1
S11305F0E801AF81B8850EC0D801139612962D91EB
S11306003C911397E901488159818417950710F0AB
S1130610D901F4CF12968D919C9113979383828381
S1130620EC01FD83EC83B583A4831396FC93EE93D2
S1130630129711870087F80180818F5F8083DF9193
S1130640CF911F910F910895CF93DF93FC01A08563
S1130650B1858281938124813581EC013D832C8392
S1130660C481D5819B838A8311968D919C91129725
S1130670E817F90721F41296DC93CE9311971186AB
S113068010868C9181508C938C91DF91CF91089539
S113069031E1FC013083319722E220833197A3E3D7
S11306A0A08331976083319770833197108231979B
S11306B060E8608331971082319762E060833197FC
S11306C063E06083319764E06083319765E0608321
S11306D0319766E06083319767E06083319768E023
S11306E06083319769E06083319760E1608331977B
S11306F03083319732E13083319733E1308331975E
S113070034E13083319735E13083319736E13083FA
S1130710319737E13083319738E13083319739E1CC
S11307203083319730E23083319731E2308331972F
S11307302083319723E2208331974083319750837C
S1130740319726E22083319727E22083319728E2EC
S11307502083319729E22083319720E32083319746
S113076021E3208386970895A89590EC88E10FB63D
S1130770F894A895809360000FBE90936000A091B8
S1130780A601B091A701CD91CDBFDD91DEBFFF9150
S1130790EF91DF91CF91BF91AF919F918F917F9115
S11307A06F915F914F913F912F911F910F91FF9006
S11307B0EF90DF90CF90BF90AF909F908F907F90FD
S11307C06F905F904F903F902F901F900F900FBEAF
S11307D00F90089581E008950F920FB6F8940F9248
S11307E01F9211242F923F924F925F926F927F92A9
S11307F08F929F92AF92BF92CF92DF92EF92FF922D
S11308000F931F932F933F934F935F936F937F9314
S11308108F939F93AF93BF93CF93DF93EF93FF9304
S1130820A091A601B091A7010DB60D920EB60D923E
S11308300E94010AA091A601B091A701CD91CDBF5C
S1130840DD91DEBFFF91EF91DF91CF91BF91AF9129
S11308509F918F917F916F915F914F913F912F91D4
S11308601F910F91FF90EF90DF90CF90BF90AF90CA
S11308709F908F907F906F905F904F903F902F90BC
S11308801F900F900FBE0F90089578941F920F92AF
S11308900FB60F9211242F933F934F935F936F934F
S11308A07F938F939F93AF93BF93EF93FF930E9494
S11308B01409FF91EF91BF91AF919F918F917F9117
S11308C06F915F914F913F912F910F900FBE0F90B9
S11308D01F9018950FB6F8940F92FC01928D0F900B
S11308E00FBE81E0911180E008950F931F93CF9381
S11308F0DF93EC01042F1A8D4C8D41110BC08881BC
S11309009981892BE9F58C819D810E946E0B1D8252
S11309101C8237C050E0011115C08A819B810E945E
S113092040102C8D8A819B81820F911D9B838A8329
S11309302C813D818217930718F1888199819B83CB
S11309408A831EC08E819F810E9440108C8D90E00E
S11309509195819591092E813F81280F391F3F83FD
S11309602E83488159812417350730F42C813D8129
S1130970820F931F9F838E83023011F41111115043
S113098080E01F5F1A8FDF91CF911F910F9108951F
S1130990FC01CB01448D4423A1F050E02681378132
S11309A0240F351F37832683648175812617370703
S11309B020F02081318137832683668177810C94EE
S11309C040100895EF92FF921F93CF93DF93EC01B1
S11309D00FB6F8940F921E8D7C0181E1E80EF11C94
S11309E011165CF48989882341F0C7010E94DE0A4C
S11309F081110E945C0B1150F3CF8FEF8E8F0F90FB
S1130A000FBE0FB6F8940F921D8D7E0188E0E80E9C
S1130A10F11C11165CF48885882341F0C7010E94FB
S1130A20DE0A81110E945C0B1150F3CF8FEF8D8F82
S1130A300F900FBEDF91CF911F91FF90EF9008951B
S1130A40CF93DF93EC010FB6F8940F92488159814C
S1130A508B8D7C8D9A01879F200D311D11243D8340
S1130A602C831A8E5B834A8390E00197789F9001D0
S1130A70799F300D1124CA01820F931F9F838E83A7
S1130A808FEF8D8F8E8F611108C08885882369F060
S1130A90CE0108960E94DE0A08C0CE0108960E9484
S1130AA0B902CE0141960E94B9020F900FBE81E0B7
S1130AB0DF91CF9108950F931F93CF93DF93082F66
S1130AC0162F662321F0869FC001112402C080E006
S1130AD090E04F960E947B02EC01009771F0111197
S1130AE003C09983888303C04F96998388830B8FAF
S1130AF01C8F61E0CE010E942005CE01DF91CF91D1
S1130B001F910F910895AF92BF92CF92DF92FF92FF
S1130B100F931F93CF93DF9300D000D01F92CDB7D4
S1130B20DEB78C016B015D834C83F22E80E05801AB
S1130B3098E0A90EB11C0FB6F8940F92F801228D1B
S1130B40938D291718F0F2E0FF1211C04F2DB60152
S1130B50C8010E947504F8018189882321F0C80125
S1130B6041960E94DE0A0F900FBE81E050C02C8196
S1130B703D81232B19F40F900FBE48C0811104C08E
S1130B80CE0101960E941E0B0F900FBE0E94040915
S1130B900FB6F8940F92F801858D8F3F09F4158EE6
S1130BA0F801868D8F3F09F4168E0F900FBEBE019B
S1130BB06C5F7F4FCE0101960E94290B811121C0E9
S1130BC00FB6F8940F92F801928D838D0F900FBE9B
S1130BD0981311C06C817D81C5010E94B50AC801BA
S1130BE00E94E2040E949809882311F081E0A3CFB7
S1130BF00E94EC03FBCFC8010E94E2040E94980902
S1130C00F5CFC8010E94E2040E94980980E00F9089
S1130C100F900F900F900F90DF91CF911F910F9134
S1130C20FF90DF90CF90BF90AF900895EF92FF9226
S1130C301F93CF93DF93EC019A8D8B8D981710F04F
S1130C402230E1F47A011E8D422FCE010E947504F8
S1130C501F3F81F48989882379F0CE0141960E944F
S1130C60DE0A882349F0E114F10431F081E0F70150
S1130C70808305C01F5F1E8F81E001C080E0DF918B
S1130C80CF911F91FF90EF900895AF92BF92CF92B2
S1130C90DF92FF920F931F93CF93DF9300D000D086
S1130CA01F92CDB7DEB78C016B015D834C8380E06E
S1130CB0580191E1A90EB11C0FB6F8940F92F801F6
S1130CC0F28CFF2091F0B601C8010E94C804FA9486
S1130CD0F801F28E8085882321F0C80108960E94CD
S1130CE0DE0A0F900FBE81E050C02C813D81232B82
S1130CF019F40F900FBE48C0811104C0CE010196B3
S1130D000E941E0B0F900FBE0E9404090FB6F894A8
S1130D100F92F801858D8F3F09F4158EF801868DA9
S1130D208F3F09F4168E0F900FBEBE016C5F7F4F8C
S1130D30CE0101960E94290B81111CC0C8010E949A
S1130D406A04882389F06C817D81C5010E94B50AFB
S1130D50C8010E94E2040E949809882311F081E0EE
S1130D60ABCF0E94EC03FBCFC8010E94E2040E94B7
S1130D709809F5CFC8010E94E2040E949809C801AD
S1130D800E946A04882359F380E00F900F900F901B
S1130D900F900F90DF91CF911F910F91FF90DF90F3
S1130DA0CF90BF90AF900895CF93DF93EC010FB62F
S1130DB0F8940F928D8D8F3F09F41D8E8E8D8F3F89
S1130DC009F41E8E0F900FBE8A8D811104C0CE01CE
S1130DD041960E94C60ACE01DF91CF910C94E204A1
S1130DE0E0916E01F0916F018081811103C08FEF5A
S1130DF09FEF0CC0E0916E01F0916F010580F681C8
S1130E00E02D0680F781E02D828193819093460145
S1130E10809345010895FF920F931F93CF93DF931F
S1130E20EC01F62E00914D0110914E018091A60126
S1130E309091A70102960E942403CF3F8FEFD80719
S1130E4089F4FF2079F06091A6017091A7016E5F8B
S1130E507F4F80E591E0DF91CF911F910F91FF903B
S1130E600C94CB02C00FD11FE091A601F091A70111
S1130E70D383C2836091A6017091A701C017D107E3
S1130E8068F480916C0190916D016E5F7F4FDF91EA
S1130E90CF911F910F91FF900C94EC0280916E0101
S1130EA090916F016E5F7F4F0E94EC02809145012B
S1130EB090914601C817D90720F4D0934601C093F6
S1130EC04501DF91CF911F910F91FF90089580917B
S1130ED05901882309F10FB6F8940F92E0915F014C
S1130EE0F0916001C681D781CE0102960E9424034D
S1130EF080914F01815080934F018091590181501D
S1130F00809359010F900FBE8F89988D0E948E0295
S1130F10CE010E948E02DBCF0E94EC03D8CF5F92F9
S1130F206F927F928F929F92AF92BF92CF92DF92F5
S1130F30EF92FF920F931F93CF93DF933C016B01CA
S1130F405A014901502ECA010E947B028C01892B4F
S1130F5009F4DAC088E290E00E947B02EC01892B5C
S1130F60C9F0188F0F8BA50165EA70E0C8010E94D3
S1130F70491021E0A21AB1088F89988DA80EB91ED4
S1130F80C114D104C9F0BE01675E7F4FF601C601EA
S1130F90089607C0C8010E948E02B6C0E817F90778
S1130FA049F09F014191DB014D93BD01D9012C9181
S1130FB02111F4CF18A201C0198E052D043008F0B8
S1130FC003E00E8B09A31AA26E01B2E0CB0ED11C72
S1130FD0C6010E94C702CE010C960E94C702D9879F
S1130FE0C88784E090E0801B91099D878C87DB8B08
S1130FF0CA8B1BA21CA21DA21EA21FA2A401B30184
S1131000C5010E94480399838883E114F10419F00F
S1131010F701D183C0830FB6F8940F9280914F01EA
S11310208F5F80934F018091A6019091A701892B36
S1131030D1F5D093A701C093A60180914F018130CF
S113104009F041C082E891E00E94B9028BE891E086
S11310500E94B90284E991E00E94B9028DE991E00D
S11310600E94B90289E791E00E94B90280E791E009
S11310700E94B90283E691E00E94B9028AE591E0F8
S11310800E94B90280E591E00E94B90289E791E0EB
S113109090936F0180936E0180E791E090936D01CE
S11310A080936C0110C080914B0181110CC0E091C0
S11310B0A601F091A70196898E89891720F0D09313
S11310C0A701C093A601809147018F5F80934701D8
S11310D08E8990914C01981710F480934C01F9E09B
S11310E08F9FC0011124B6018E579E4F0E94CB02E0
S11310F00F900FBE80914B01882321F08091A601AF
S11311009091A70181E001C08FEFDF91CF911F91F2
S11311100F91FF90EF90DF90CF90BF90AF909F9092
S11311208F907F906F905F9008950F931F93CF934C
S1131130DF932091A6013091A7018217930789F1CB
S1131140009779F10FB6F8940F92FC01228533854C
S11311502055314021F5FC0124893589F1E02336FD
S11311603F07E9F0232BD9F4EC018C010E5F1F4FEC
S1131170C8010E9424038E8990914C01981710F4A1
S113118080934C0129E0829FC0011124B8018E573D
S11311909E4F0E94CB028091A6019091A7010F90CF
S11311A00FBEDF91CF911F910F910895EF92FF929F
S11311B00F9383E4E82E81E0F82E00E020E030E095
S11311C045E550E063E371E087E697E00E948F070E
S11311D08130B1F40E94FB0B813091F4F8942FEF2D
S11311E03FEF309346012093450180934B011092C9
S11311F04E0110924D010F91FF90EF900C94B403A7
S11312000F91FF90EF900895809142018F5F80933A
S1131210420108950FB6F8940F9280914D01909178
S11312204E010F900FBE0895DF92EF92FF920F933D
S11312301F93CF93DF938091420181116BC0C091C2
S11312404D01D0914E012196D0934E01C0934D0192
S11312502097B9F480916E0190916F0120916C01F7
S113126030916D0130936F0120936E0190936D0165
S113127080936C01809148018F5F809348010E94A4
S1131280F0068091450190914601C817D90708F4EA
S113129046C089E0D82EE0916E01F0916F01808103
S11312A0811103C08FEF9FEF0FC0E0916E01F091A9
S11312B06F010580F681E02D06811781F801828196
S11312C09381C817D90728F4909346018093450168
S11312D026C07801F2E0EF0EF11CC7010E9424033E
S11312E0F80184899589892B21F0C8010C960E9404
S11312F02403F801868990914C01981710F4809387
S11313004C01D89EC0011124B7018E579E4F0E94F4
S1131310CB02C1CF80914A018F5F80934A0180E064
S1131320DF91CF911F910F91FF90EF90DF9008957F
S1131330EF92FF920F931F93CF93DF930FB6F8941E
S11313400F92809142018150809342018091420129
S113135081114DC080914F01882309F448C0C0E039
S1131360D0E089E0F82EEE24E39480916301882391
S113137051F1E0916801F0916901C681D781CE01F4
S11313800C960E9424038E010E5F1F4FC8010E9419
S113139024038E8990914C01981710F480934C018A
S11313A0F89EC0011124B8018E579E4F0E94CB02B3
S11313B0E091A601F091A7019E8986899817A8F269
S11313C0E0924901D2CFCD2B11F00E94F006C091DA
S11313D04A01CC2351F0D1E00E9414098111D09329
S11313E04901C150C9F710924A01809149010F90F7
S11313F00FBE80E0DF91CF911F910F91FF90EF908E
S1131400089580914201882321F081E0809349016D
S1131410089510924901A091A601B091A701E0910D
S1131420A601F091A7012D913C918789908D821797
S1131430930760F06091A6017091A7018091A601C5
S11314409091A701675E7F4F0E94AC0280914C018E
S113145069E0482F50E0649F9001659F300D11248E
S1131460F901EE57FE4F9081911102C08150F1CFE6
S1131470A181B28112960D90BC91A02DB283A1835B
S11314802B573E4FA217B30731F412962D913C917E
S113149013973283218399E0949FF001959FF00D77
S11314A01124EE57FE4F0180F281E02D2681378111
S11314B03093A7012093A60180934C0108950F93C4
S11314C01F93CF93DF93EC010FB6F8940F92892BFF
S11314D021F4C091A601D091A7018E010E5F1F4F88
S11314E0C8010E9424038C899D89892B21F0CE0197
S11314F00C960E942403B80180E591E00E94CB027F
S11315008FA1813009F41FA20F900FBE80914B016F
S1131510882339F00FB6F8940F920E94F0060F90CA
S11315200FBE8091A6019091A701C817D907C1F4F5
S113153080914B01882319F00E94EC0311C0909113
S1131540500180914F01981305C01092A701109289
S1131550A60106C0DF91CF911F910F910C94010A4F
S1131560DF91CF911F910F910895CF93DF93EB01FA
S11315706091A6017091A701645F7F4F0E94EC0205
S113158061E0CE01DF91CF910C940B071F93CF93B1
S1131590DF93EB01142F6091A6017091A701645FA2
S11315A07F4F0E94CB02112311F0CFEFDFEF612FA9
S11315B0CE01DF91CF911F910C940B070F931F93D2
S11315C0CF93DF93DC011596ED91FC911697C681BC
S11315D0D7818E01045F1F4FC8010E9424038091AC
S11315E04201811114C00A501109C8010E94240348
S11315F08E8990914C01981710F480934C01B9E0B6
S11316008B9FC0011124B8018E579E4F03C0B801AF
S113161083E691E00E94CB02E091A601F091A7013C
S11316209E898689891720F481E08093490101C04D
S113163080E0DF91CF911F910F910895209148018F
S1131640FC01208320914D0130914E01328321838E
S11316500895CF93DF930FB6F8940F9240914D0104
S113166050914E01DB012D913C912F3FBFEF3B0781
S1131670D9F0EC01E981FA81A0914801B881BA1747
S113168019F04E175F0790F44E1B5F0BFB014217D6
S1131690530738F4241B350B318320830E941E0B1F
S11316A003C01182108202C080E001C081E00F906B
S11316B00FBEDF91CF91089581E080934901089591
S11316C080914B01882331F080914201882321F0DD
S11316D080E0089581E0089582E008950F931F93B8
S11316E0CF93DF93FC01892B11F480E02CC082A1FD
S11316F0815082A3268991A12917B9F38111F5CFCD
S1131700EF018F010E5F1F4FC8010E94240389A1BE
S11317108E8B482F50E024E030E0241B350B3D87AE
S11317202C8790914C01981710F480934C0129E078
S1131730249FC001259F900D1124B8018E579E4F00
S11317400E94CB0281E0DF91CF911F910F91089508
S11317500FB6F8940F928091AC019091AD01892B52
S1131760E9F48BEB91E00E94B90282EB91E00E94D4
S1131770B9028BEB91E09093B1018093B00182EBBD
S113178091E09093AF018093AE0140E065E08AE080
S11317900E945B059093AD018093AC010F900FBE46
S11317A00895FC01738362839187808746175707E6
S11317B078F0421B530B8485958548175907C8F464
S11317C0BF016E5F7F4F8091AE019091AF010DC05C
S11317D04217530718F46217730758F4BF016E5F7A
S11317E07F4F8091B0019091B1010E94EC0280E0A2
S11317F0089581E00895EF92FF920F930E94A80B41
S11318008091AC019091AD01892B81F08AEAE82E98
S113181081E0F82E03E020E030E045E550E068E3A5
S113182071E08BEA9CE00E948F0701C080E00F9179
S1131830FF90EF9008950F931F93CF93DF9300D001
S113184000D01F92CDB7DEB7A091AC01B091AD012D
S1131850109729F1F90169835B834A839D838C8303
S11318606630A4F40E94600BE091AC01F091AD01EC
S113187020E0823011F4A80102C040E050E0BE0133
S11318806F5F7F4FCF010E9483050AC020E0AF0144
S1131890BE016F5F7F4FCD010E94160601C080E03C
S11318A00F900F900F900F900F90DF91CF911F9199
S11318B00F910895EF92FF920F931F93CF93DF93AD
S11318C0E091B001F091B1018081882389F1058014
S11318D0F681E02DE080F180C681D7818E010E5F14
S11318E01F4FC8010E942403E889F989CE01099594
S11318F08A8982FFE5CF8C859D858E0D9F1DE81614
S1131900F90660F49B838A83D987C887B8018091DC
S1131910B0019091B1010E94EC02D2CF00E010E03E
S113192020E030E0A70160E0CE010E941B0CC8CF8C
S11319308091AE019091AF019093B1018093B00179
S1131940F093AF01E093AE01DF91CF911F910F911E
S1131950FF90EF900895CF93DF9300D000D01F92B3
S1131960CDB7DEB7E091B001F091B101D080DD20B8
S113197031F00580F681E02DE080F18002C0E12C99
S1131980F12C0E9404090E940A098C018091A8018B
S11319909091A9010817190720F40E945A0C81E0BC
S11319A001C080E01093A9010093A801811155C0E2
S11319B0DD20D9F10E151F0508F43EC00E949809D8
S11319C0E091B001F091B1010580F681E02DC6806F
S11319D0D780C60102960E942403D60152968C91A8
S11319E0529782FF17C01C966D917C911D976E0DC6
S11319F07F1D9701A801C6010E94D10B882369F0BD
S1131A0000E010E020E030E0A70160E0C6010E94A1
S1131A101B0C03C08E7FF601828BD6015096ED918C
S1131A20FC915197C60109951EC0E091AE01F09159
S1131A30AF01808141E0811140E0B701601B710B6F
S1131A408091AC019091AD010E94D4060E94980946
S1131A50811109C00E94EC0306C00E94980903C0CA
S1131A60898187FF0EC040E050E0BE016F5F7F4F69
S1131A708091AC019091AD010E9445068111F0CF97
S1131A8071CFEC80FD80F70182859385892B21F04D
S1131A90C70102960E9424030E940A096C018091E6
S1131AA0A8019091A901C816D90610F40E945A0CF5
S1131AB0D092A901C092A801E9810E2E000CFF0B5F
S1131AC0EA30F10580F6EC5CFF4FD70152968C9119
S1131AD00C94190F8160F701828B2A813B81648504
S1131AE07585620F731FA601C7010E94D10B88235D
S1131AF009F4B9CFD7015096ED91FC915197C701E4
S1131B000995F701828982FFAECF4A815B81848582
S1131B109585480F591F00E010E020E030E060E0B8
S1131B20C7010E941B0C9FCF8160F701828B6A81E1
S1131B307B81758764876C0D7D1D9601A601C701A5
S1131B400E94D10B90CF81FD04C0C7010E948E0278
S1131B508ACF8E7FD70152968C9385CF1092C50081
S1131B608CE08093C400E0ECF0E0808182608083AC
S1131B7088E18093C10086E08093C200089590912B
S1131B80C00095FFFCCF8093C60008950E94BF0D4E
S1131B9080E090E008958091C00087FFFCCF8091A1
S1131BA0C60008950E94CB0D90E008950F931F93F3
S1131BB0CF938C01C0E0F801EC0FF11D80818823E4
S1131BC021F00E94BF0DCF5FF6CFCF911F910F91EF
S1131BD0089562ED7DE086EC9DE00C9450100E9427
S1131BE0630E88F09F5798F0B92F9927B751B0F03A
S1131BF0E1F0660F771F881F991F1AF0BA95C9F78D
S1131C0014C0B13091F00E947D0EB1E008950C949F
S1131C107D0E672F782F8827B85F39F0B93FCCF352
S1131C20869577956795B395D9F73EF49095809509
S1131C30709561957F4F8F4F9F4F0895E89409C029
S1131C4097FB3EF490958095709561957F4F8F4FEB
S1131C509F4F9923A9F0F92F96E9BB279395F69501
S1131C60879577956795B795F111F8CFFAF4BB0F7F
S1131C7011F460FF1BC06F5F7F4F8F4F9F4F16C0E3
S1131C80882311F096E911C0772321F09EE8872F6D
S1131C90762F05C0662371F096E8862F70E060E029
S1131CA02AF09A95660F771F881FDAF7880F9695A2
S1131CB0879597F9089557FD9058440F551F59F08B
S1131CC05F3F71F04795880F97FB991F61F09F3F25
S1131CD079F087950895121613061406551FF2CF4E
S1131CE04695F1DF08C0161617061806991FF1CF9E
S1131CF086957105610508940895E894BB276627C5
S1131D007727CB0197F908950E94970E0C94080F3A
S1131D100E94FA0E38F00E94010F20F0952311F072
S1131D200C94F10E0C94F70E11240C947E0E0E9468
S1131D305B0E70F3959FC1F3950F50E0551F629FA2
S1131D40F001729FBB27F00DB11D639FAA27F00D10
S1131D50B11DAA1F649F6627B00DA11D661F829F37
S1131D602227B00DA11D621F739FB00DA11D621F1C
S1131D70839FA00D611D221F749F3327A00D611D39
S1131D80231F849F600D211D822F762F6A2F11241B
S1131D909F5750409AF0F1F088234AF0EE0FFF1F4E
S1131DA0BB1F661F771F881F91505040A9F79E3FA5
S1131DB0510580F00C94F10E0C947E0E5F3FE4F319
S1131DC0983ED4F3869577956795B795F795E795FB
S1131DD09F5FC1F7FE2B880F911D9695879597F904
S1131DE0089597F99F6780E870E060E008959FEF99
S1131DF080EC089500240A9416161706180609069E
S1131E00089500240A94121613061406050608956C
S1131E10092E0394000C11F4882352F0BB0F40F4F4
S1131E20BF2B11F460FF04C06F5F7F4F8F4F9F4F34
S1131E300895EE0FFF1F0590F491E02D09940F9380
S1131E401F93CF93DF938230910510F482E090E0EA
S1131E50E091CF01F091D00120E030E0A0E0B0E0CB
S1131E60309719F140815181028113814817590734
S1131E70C8F08417950769F4109731F012960C9303
S1131E80129713961C9327C00093CF011093D0018F
S1131E9022C02115310519F04217530718F49A018D
S1131EA0BD01EF01DF01F801DBCF21153105F9F0A8
S1131EB0281B390B2430310580F48A819B816115FC
S1131EC0710521F0FB019383828304C09093D001B8
S1131ED08093CF01FE01329644C0FE01E20FF31F4E
S1131EE08193919322503109398328833AC02091F8
S1131EF0CD013091CE01232B41F420910201309188
S1131F0003013093CE012093CD0120910001309143
S1131F1001012115310541F42DB73EB7409104016B
S1131F2050910501241B350BE091CD01F091CE01B8
S1131F30E217F307A0F42E1B3F0B2817390778F09C
S1131F40AC014E5F5F4F2417350748F04E0F5F1FFB
S1131F505093CE014093CD018193919302C0E0E070
S1131F60F0E0CF01DF91CF911F910F910895CF93AE
S1131F70DF93009709F481C0FC0132971382128227
S1131F80A091CF01B091D001109781F420813181CB
S1131F90820F931F2091CD013091CE01281739076C
S1131FA051F5F093CE01E093CD0167C0ED0120E03F
S1131FB030E0CE17DF0740F44A815B819E01411572
S1131FC05105F1F0EA01F5CFD383C28340815181F9
S1131FD0840F951FC817D90759F488819981840FF4
S1131FE0951F0296918380838A819B819383828348
S1131FF02115310529F4F093D001E093CF013DC0C0
S1132000E901FB83EA8349915991C40FD51FEC1769
S1132010FD0761F480819181840F951F0296E90187
S113202099838883828193819B838A83E0E0F0E0B3
S113203012968D919C911397009719F0FD01DC0184
S1132040F7CF8D919C9111979D012E5F3F4F820F89
S1132050931F2091CD013091CE012817390769F4DF
S1132060309729F41092D0011092CF0102C013824C
S11320701282B093CE01A093CD01DF91CF91089548
S1132080FB01DC0102C001900D9241505040D8F791
S11320900895DC0101C06D9341505040E0F708956C
S11320A00F931F93CF93DF93009731F4611571055C
S11320B019F480E090E03AC08B01EC016EE070E02E
S11320C081E090E00E949212FC01892B91F380E858
S11320D083830115110571F01387028781E88383D7
S11320E08091D1019091D201892B21F4F093D201F6
S11320F0E093D1012097C9F0D187C08783818260A2
S113210083838091D3019091D401892B71F4F0934E
S1132110D401E093D3018091D5019091D601892B0C
S113212021F4F093D601E093D501CF01DF91CF9153
S11321301F910F910895A0E0B0E0E1EAF0E10C9462
S11321406E13AE014B5F5F4FFA0161917191AF0164
S11321508091D3019091D4010E94B110E2E00C94DB
S11321608A13ABE0B0E0E7EBF0E10C945E136C0192
S11321707B018A01FC0117821682838181FFCCC115
S1132180CE0101963C01F6019381F70193FD8591FF
S113219093FF81917F01882309F4BAC1853239F410
S11321A093FD859193FF81917F01853229F4B601D6
S11321B090E00E94C412E7CF912C212C312CFFE136
S11321C0F315D8F08B3279F038F4803279F0833219
S11321D0A1F4232D20611DC08D3261F0803369F498
S11321E0232D216016C0832D8260382EE32DE460F8
S11321F03E2E2AC0F32DF8601DC037FC2DC020ED03
S1132200280F2A3040F08E32B9F436FC81C1232DD8
S11322102064322E19C036FE06C08AE0989E200D36
S11322201124922E11C0EAE02E9E200D1124222E9C
S1132230F32DF0623F2E08C08C3621F4832D806884
S1132240382E02C0883641F4F70193FD859193FF3F
S113225081917F018111B3CF982F9F7D9554933045
S113226028F40C5F1F4F9FE399830DC0833631F030
S1132270833771F0833509F059C021C0F80180819A
S113228089830E5F1F4F88248394912C530113C0BC
S11322902801F2E04F0E511CF801A080B18036FEF7
S11322A003C0692D70E002C06FEF7FEFC5010E948B
S11322B0B9124C018201F32DFF773F2E16C028017D
S11322C022E0420E511CF801A080B18036FE03C00A
S11322D0692D70E002C06FEF7FEFC5010E94AE125E
S11322E04C01F32DF0683F2E820133FC1BC0822D7C
S11322F090E088169906B0F4B60180E290E00E945E
S1132300C4122A94F4CFF50137FC859137FE8191EC
S11323105F01B60190E00E94C41221102A9421E0CA
S1132320821A91088114910471F7E8C0843611F07F
S1132330893641F5F80137FE07C0608171818281D9
S113234093810C5F1F4F08C060817181072E000CC0
S1132350880B990B0E5F1F4FF32DFF763F2E97FFCF
S113236009C090958095709561957F4F8F4F9F4FD1
S1132370F0683F2E2AE030E0A3010E940013882E6B
S1132380861845C0853731F4232D2F7EB22E2AE0DE
S113239030E025C0932D997FB92E8F36C1F018F403
S11323A0883579F0B5C0803719F0883721F0B0C08E
S11323B0E92FE061BE2EB4FE0DC0FB2DF460BF2EEC
S11323C009C034FE0AC0292F2660B22E06C028E0B8
S11323D030E005C020E130E002C020E132E0F80145
S11323E0B7FE07C060817181828193810C5F1F4FAA
S11323F006C06081718180E090E00E5F1F4FA301F1
S11324000E940013882E8618FB2DFF773F2E36FE80
S11324100DC0232D2E7FA22E891458F434FE0BC038
S113242032FC09C0832D8E7EA82E05C0B82CA32CA7
S113243003C0B82C01C0B92CA4FE0FC0FE01E80DE6
S1132440F11D8081803321F49A2D997EA92E09C033
S1132450A2FE06C0B394B39404C08A2D867809F012
S1132460B394A3FC11C0A0FE06C0B21488F4280CD7
S1132470922C9B180EC0B21460F4B60180E290E076
S11324800E94C412B394F7CFB21418F42B1802C0EC
S1132490982C212CA4FE10C0B60180E390E00E9489
S11324A0C412A2FE17C0A1FC03C088E790E002C0DA
S11324B088E590E0B6010CC08A2D867859F0A1FE1B
S11324C002C08BE201C080E2A7FC8DE2B60190E07D
S11324D00E94C412891438F4B60180E390E00E948B
S11324E0C4129A94F7CF8A94F301E80DF11D808108
S11324F0B60190E00E94C4128110F5CF222009F4A5
S113250042CEB60180E290E00E94C4122A94F6CF33
S1132510F6018681978102C08FEF9FEF2B96E2E14F
S11325200C947A130F931F93CF93DF93869F8001AC
S1132530879F100D969F100D1124C8010E941F0F34
S1132540EC01009729F0A80160E070E00E944910B6
S1132550CE01DF91CF911F910F910895FC01059059
S1132560615070400110D8F7809590958E0F9F1F91
S11325700895FC016150704001900110D8F78095D6
S113258090958E0F9F1F08950F931F93CF93DF9302
S1132590FB01238121FD03C08FEF9FEF2CC022FF9D
S11325A016C046815781248135814217530744F46C
S11325B0A081B1819D012F5F3F4F318320838C9394
S11325C0268137812F5F3F4F3783268314C08B01C9
S11325D0EC01FB010084F185E02D0995892BE1F6DE
S11325E0D80116968D919C911797019617969C93F6
S11325F08E931697CE01DF91CF911F910F9108957D
S1132600FA01AA27283051F1203181F1E8946F931F
S11326106E7F6E5F7F4F8F4F9F4FAF4FB1E03ED0C5
S1132620B4E03CD0670F781F891F9A1FA11D680F63
S1132630791F8A1F911DA11D6A0F711D811D911D96
S1132640A11D20D009F468943F912AE0269F11240B
S11326503019305D3193DEF6CF010895462F47706F
S1132660405D4193B3E00FD0C9F7F6CF462F4F70CA
S1132670405D4A3318F0495D31FD4052419302D028
S1132680A9F7EACFB4E0A6959795879577956795CE
S1132690BA95C9F700976105710508959B01AC01CE
S11326A00A2E06945795479537952795BA95C9F7F5
S11326B0620F731F841F951FA01D08952F923F92D0
S11326C04F925F926F927F928F929F92AF92BF923E
S11326D0CF92DF92EF92FF920F931F93CF93DF93EA
S11326E0CDB7DEB7CA1BDB0B0FB6F894DEBF0FBE47
S11326F0CDBF09942A88398848885F846E847D8494
S11327008C849B84AA84B984C884DF80EE80FD8095
S11327100C811B81AA81B981CE0FD11D0FB6F8940B
S1112720DEBF0FBECDBFED010895F894FFCFCC
S113272E0000D7012000256C642025640D0A006486
S113273E68743131206473313862323020746573B9
S113274E74200D0A007265616454480073657269E1
S113275E616C0049444C4500546D722053766300FD
S9030000FC
