S01700007363686564756C65725F74657374312E73726563FE
S11300000C9491010C94AE010C94AE010C94AE01CD
S11300100C94AE010C94AE010C94AE010C94AE01A0
S11300200C94AE010C94AE010C94AE010C94AE0190
S11300300C94AE010C94AE010C94AE010C94AE0180
S11300400C94AE010C94AE010C94AE010C94AE0170
S11300500C94AE010C94AE010C94AE010C94AE0160
S11300600C94AE010C94AE010000000000000000EE
S11300705F000000000700070000147F147F1400D5
S1130080242A7F2A12002313086462003649552269
S11300905000000003000000001C22410000004149
S11300A0221C000014083E08140008083E0808003A
S11300B000503000000008080808080000606000D4
S11300C000002010080402003E5149453E00004251
S11300D07F4000004261514946002141454B3100B7
S11300E01814127F10002745454539003C4A4949F8
S11300F030000371090503003649494936000649B1
S113010049291E0000363600000000563600000063
S11301100814224100001414141414000041221481
S11301200800020151090600324979413E007E115E
S113013011117E007F49494936003E414141220068
S11301407F4141413E007F49494941007F090909F6
S113015001003E4141497A007F0808087F000041C0
S11301607F4100002040413F01007F0814224100EC
S11301707F40404040007F020C027F007F04081053
S11301807F003E4141413E007F09090906003E418E
S113019051215E007F091929460046494949310029
S11301A001017F0101003F4040403F001F204020EB
S11301B01F003F4038403F006314081463000708E1
S11301C070080700615149454300007F4141000028
S11301D00204081020000041417F000004020102D3
S11301E0040040404040400000010204000020544C
S11301F0545478007F484444380038444444200030
S1130200384444487F00385454541800087E090187
S1130210020018A4A4A47C007F0804047800004809
S11302207D4000000000847D00007F102844000011
S113023000417F4000007C04780478007C080404BA
S11302407800384444443800FC242424180018243A
S11302502428FC007C08040408004854545420005A
S1130260043F444020003C4040207C001C204020AF
S11302701C003C4030403C004428102844001CA092
S1130280A0A07C004464544C4400000836410000A3
S113029000007F000000004136080000100808102C
S11302A00800000000000000205454D478003844B2
S11302B046452000385454D4180000497F440000B7
S11302C07C0806057800384446453800485456559D
S11302D020004464564D44004464554C44007E114F
S11302E011917E003C42464324007F4949C94100A4
S11302F07F50484440007E040B107E003C4246433D
S11303003C004C52565322004266534A4600426215
S1130310534A460006090906384C544438304F4FB6
S1130320300011241FBECFEFD8E0DEBFCDBF11E0F7
S1130330A0E0B1E0E2E3FFE002C005900D92AE362A
S1130340B107D9F723E0AEE6B1E001C01D92A03DAC
S1130350B207E1F70E94AD050C9497070C940000D6
S1130360209A80EA8A95F1F720988AE18A95F1F734
S113037000C00895209A80E18A95F1F720988AEACE
S11303808A95F1F700C00895209A8FEB93E00197C6
S1130390F1F700C0000020989AEB9A95F1F700C09D
S11303A083B180958170E3E3F3E03197F1F700C006
S11303B000000895209A80E18A95F1F7209898E149
S11303C09A95F1F783B192E99A95F1F700C081709B
S11303D00895CF93DF93D82FC8E0D0FF03C00E94C5
S11303E0BA0102C00E94B001D695C150B1F7DF91A5
S11303F0CF910895CF93DF93D8E0C0E0C6950E94D3
S1130400DA018111C068D150C9F78C2FDF91CF91E7
S1130410089598E0282F262720FD03C07695679538
S113042005C028E1622776956795606886959150A6
S113043089F7862F08950E94C4018CEC0E94E9017B
S113044084E40C94E901CF92DF92EF92FF920F9330
S11304501F93CF93DF93CDB7DEB729970FB6F894E8
S1130460DEBF0FBECDBF0E94C4018CEC0E94E90127
S11304708EEB0E94E9018E010F5F1F4F6E018AE02F
S1130480C80ED11C78010E94FA01F70181937F0103
S1130490EC15FD05C1F77E01F9E0EF0EF11C60E0FB
S11304A070E0F80181918F010E940902682F70E0C9
S11304B00E151F05B1F7898590E06817790781F457
S11304C0A981BA8124E630E00E947A07DC01CB01DD
S11304D024E0B695A795979587952A95D1F702C0FC
S11304E085E590E029960FB6F894DEBF0FBECDBF28
S11304F0DF91CF911F910F91FF90EF90DF90CF90FC
S11305000895EF92FF920F931F93CF93DF9300D040
S113051000D01F92CDB7DEB7FE01319625E0DF0192
S11305201D922A95E9F7219A299ABFEF20E732E034
S1130530B15020403040E1F700C000002998A7EEF8
S1130540B3E01197F1F700C00000299A2198BAE6A8
S1130550BA95F1F700C0199B02C08FEF64C025ED76
S11305602A95F1F70000199BF8CF35ED3A95F1F78C
S113057000008E010A5F1F4FEE24E394F12C27E064
S113058030E040E0A9ECB0E0199903C01197E1F71D
S1130590E4CF50E55A95F1F7199B07C0D701022E15
S11305A001C0AA0F0A94EAF74A2BA9ECB0E0199B00
S11305B003C01197E1F7D1CF2150310918F74193C6
S11305C00E171F07E1F6219A299ABFEFE0E7F2E040
S11305D0B150E040F040E1F700C0000049815A8189
S11305E05427452754272B813C8132272327322740
S11305F0F981EA81EF0FFB81EF0FFC81EF0FFD81A1
S1130600EF13ABCF37FF08C03F7731952195310900
S1130610DC012D933C9303C0FC0131832083DB0177
S11306204D935C9380E00F900F900F900F900F907C
S1130630DF91CF911F910F91FF90EF900895CF9389
S1130640DF9300D0CDB7DEB71A821982BC01CE0188
S113065001960E9481020F900F90DF91CF9108952F
S11306605D98882311F05A9A01C05A9888E090E066
S113067020E8362F322311F05B9A01C05B985C9A14
S11306800000000000000000000000000000000066
S11306905C982695019769F75D9A0895549A539A40
S11306A0529A559A8FE295E70197F1F700C000003E
S11306B05D9A61E280E00E94300363E180E00E9481
S11306C0300366E080E00E94300365EA80E00E9427
S11306D0300360E280E00E9430036CE080E00C9420
S11306E0300343E751E026E080E090E0FA01E80FB0
S11306F0F91F10820696883F31E09307B9F721501D
S11307004F5F5F4F2111F0CF0895DF92EF92FF9278
S11307100F931F93CF93DF93CDB7DEB762970FB6D6
S1130720F894DEBF0FBECDBF8C0182E1E0E0F1E0C2
S1130730DE01119601900D928A95E1F790E086E032
S1130740D82E70E050E0F801E90FF11D208130E06F
S11307502115310509F43EC0FE0131967F01E0E028
S1130760F0E0D7018D917D01A82FB0E02A173B0757
S113077029F03196E231F105A1F703C09F01205819
S11307803F4FD29EF001D39EF00D11249F01205CB7
S11307903109FB01B6E09B9FE00DF11D1124DE9EA3
S11307A07001DF9EF00C1124E40EF51EA0E0B0E011
S11307B0F901E859FF4F8491F701EA0FFB1FED5847
S11307C0FE4F80832F5F3F4F1696A432B10581F709
S11307D09F5FB9CF62960FB6F894DEBF0FBECDBF50
S11307E0DF91CF911F910F91FF90EF90DF900895CB
S11307F0BF92CF92DF92EF92FF920F931F93CF930A
S1130800DF9350E036E0639F400D511D1124E12C2D
S1130810F12CA0E0B0E010E030E0A017B107F0F454
S11308206D01C40ED51EC0E0D0E060E070E0621738
S1130830730780F4FB01EE0DFF1DE80FF91FB49060
S1130840FE01EC0DFD1DED58FE4FB0826F5F7F4F32
S11308502696EDCFE20EF31E1196DFCFDF91CF91F6
S11308601F910F91FF90EF90DF90CF90BF9008956C
S1130870EF92FF920F931F93CF9383E7E82E81E0CB
S1130880F82EC0E06C2F606480E00E94300360E8C2
S113089080E00E94300300E010E0F701E00FF11F58
S11308A0608181E00E9430030A5F1F4F083F81E0AE
S11308B0180799F7CF5F8FEFE81AF80AC63011F7D7
S11308C0CF911F910F91FF90EF9008958FE691E0E3
S11308D00E941F0341E060916B038DE693E00C944A
S11308E06D060F931F93CF93DF9300916F011091C7
S11308F07001E0917101F09172012AE030E0C801C9
S1130900B9010E9466079F938F93CB01B9010E949E
S113091066079F938F93C4E6D0E0C801BE010E948E
S11309206607CB01B9010E9466079F938F93CF019D
S1130930B9010E9466079F938F93CB01B9010E946E
S113094066079F938F93CF01BE010E946607CB0178
S1130950B9010E9466079F938F93CF0168EE73E0FD
S11309600E946607CB01B9010E9466079F938F938B
S113097082E191E09F938F930E94220740E060916F
S11309806C038DE693E00E946D0640E060916B037A
S11309908DE693E00E946D068DB79EB740960FB624
S11309A0F8949EBF0FBE8DBF41E06091CF038DE6EA
S11309B093E0DF91CF911F910F910C946D06CF922C
S11309C0DF92EF92FF920F931F93CF93DF93CDB7F4
S11309D0DEB72B970FB6F894DEBF0FBECDBF2091C4
S11309E07101309172010AE010E0C901B8010E945E
S11309F066079F938F93CB01B8010E9466079F936C
S1130A008F9384E6E82EF12CC901B7010E94660792
S1130A10CB01B8010E9466079F938F93C90168EECA
S1130A2073E00E946607CB01B8010E9466079F939A
S1130A308F9382E291E09F938F93CE0101966C0194
S1130A409F938F930E94E10620916F013091700172
S1130A50C901B8010E9466079F938F93CB01B80127
S1130A600E9466079F938F93C901B7010E9466078E
S1130A70CB01B8010E9466079F938F9388E291E0AF
S1130A809F938F937E0198E0E90EF11CFF92EF9201
S1130A900E94E1060E94710301E024E040E060E06E
S1130AA08DE193E00E94F80340E066E0C6010E94F5
S1130AB0850324E040E064E284E193E00E94F803CB
S1130AC040E069E28FE291E00E94850325E041E085
S1130AD060E088E193E00E94F80341E066E0C7012A
S1130AE00E9485030E94380440E06091CF038DE6A4
S1130AF093E00E946D060FB6F894DEBF0FBECDBF23
S1130B002B960FB6F894DEBF0FBECDBFDF91CF9109
S1130B101F910F91FF90EF90DF90CF9008958091F7
S1130B206E01811106C00E941B0281E080936E0158
S1130B3008950E94DA01882379F00E942302909399
S1130B407201809371010E941B0241E060916C0369
S1130B508DE693E00C946D0608958DE693E00E9473
S1130B6035066FE875E08DE693E00E944D068093AC
S1130B706C0366E674E08DE693E00E944D06809374
S1130B806B0361E774E08DE693E00E944D06809369
S1130B90CF036FED74E08DE693E00E944D068093E1
S1130BA0CE0360916C0320E0462F8DE693E00E9413
S1130BB0720660916B0320E0462F8DE693E00E945D
S1130BC0720621E040916C036091CF038DE693E0BF
S1130BD00E94720621E040916B036091CF038DE681
S1130BE093E00E94720621E04091CF036091CE030E
S1130BF08DE693E00E9472060E94B6060E944E03A0
S1130C000E94710340E060E081E391E00E9485036B
S1130C1041E060E080E491E00E94850342E060E00E
S1130C208EE491E00E9485030E9438048CE591E0F3
S1130C300E94CE068DE693E00E94A00648E050E0B4
S1130C4062E070E00C949007CF93DF93EC01FC0119
S1130C501192CF0148E050E062E070E00E949007FA
S1130C601A861986DF91CF9108950F931F93CF931E
S1130C70DF938C010E941E06E8012896005A1F4F3C
S1130C80CE010E9424062B96C017D107C9F71882FB
S1130C90DF91CF911F910F910895CF93DF939C0122
S1130CA0FC01E05AFF4F9081983098F4D9018BE011
S1130CB0989FA00DB11D112452967C936E93519769
S1130CC0E901C90FD11D188218969C9381E0890F00
S1130CD08083892FDF91CF910895860F911DFC01A8
S1130CE0408308953BE0639F800D911D1124FC0116
S1130CF0E40FF11D21870895AC01485F5F4F2BE09D
S1130D00629FB0011124FC01E60FF71F21852230F8
S1130D1021F0FC013081231306C001968417950746
S1130D2091F781E0089580E008952BE0629F800DA3
S1130D30911D1124DC015196ED91FC915297099477
S1130D408C017C0180E6E80EF11CC0E0F701808193
S1130D50C817D8F76C2FC8010E947C06882321F09D
S1130D606C2FC8010E949506CF5FF0CF1092C5008A
S1130D708CE08093C400E0ECF0E0808182608083AA
S1130D8088E18093C10086E08093C2000895909129
S1130D90C00095FFFCCF8093C60008950F931F9366
S1130DA0CF938C01C0E0F801EC0FF11D8081882302
S1130DB021F00E94C706CF5FF6CFCF911F910F910C
S1130DC008951F93CF93DF93CDB7DEB76E817F81F4
S1130DD028853985DE011A9611E040E0F901E40F17
S1130DE0F11D50819FEF910F892F90E0552311F150
S1130DF0553231F4FB01E80FF91F8C91805D06C078
S1130E00543241F4FB01E80FF91F8C9180834F5F4A
S1130E1012960EC0563239F45181FB01E80FF91FC6
S1130E2050834E5F05C0FB01E80FF91F50834F5FED
S1130E301F5FD4CFFB01E80FF91F1082DF91CF9120
S1130E401F910895AF92BF92CF92DF92FF920F93BA
S1130E501F93CF93DF93CDB7DEB7FE013C96C190CD
S1130E60D1908F01F12CF601EF0DF11D80818823C3
S1130E7019F1853241F4580182E0A80EB11CF80141
S1130E808081805D08C0843259F45801F2E0AF0ECD
S1130E90B11CF80180810E94C706F3948501E3CF59
S1130EA0863231F481810E94C706F394F394DBCF38
S1130EB00E94C706F394D7CFDF91CF911F910F9172
S1130EC0FF90DF90CF90BF90AF900895AA1BBB1BFB
S1130ED051E107C0AA1FBB1FA617B70710F0A61B36
S1130EE0B70B881F991F5A95A9F780959095BC0157
S1130EF0CD0108950E948107B7FF0895821B930BCB
S1130F000895A29FB001B39FC001A39F700D811DDE
S1130F101124911DB29F700D811D1124911D0895FE
S1130F20DC0101C06D9341505040E0F70895F894FE
S1050F30FFCFED
S1130F32B9E6EAB3F1F39C9FBFA5C6CAA3D1D38C89
S1130F428FAF25252E2525432025252E2526250D43
S1130F520A0025252E25250025252E252625004394
S1130F62005363686564756C6572207465737400FC
S1130F726E35313130206C6364206C6962005265D5
S1130F8261642074656D702068756D0073636865B3
S1110F9264756C657220746573740D0A00003A
S9030000FC
