:100000000C9434000C9451000C9451000C94510049
:100010000C9451000C9451000C9451000C9451001C
:100020000C9451000C9451000C9451000C9451000C
:100030000C9451000C9451000C9451000C945100FC
:100040000C9451000C9451000C9451000C945100EC
:100050000C9451000C9451000C9451000C945100DC
:100060000C9451000C94510011241FBECFEFD8E026
:10007000DEBFCDBF11E0A0E0B1E0E0E1FBE002C0F7
:1000800005900D92AC32B107D9F721E0ACE2B1E0B6
:1000900001C01D92AE33B207E1F70E94E4010C9457
:1000A00086050C940000F894209A80EA8A95F1F76E
:1000B00020988AE18A95F1F700C078940895F89421
:1000C000209A80E18A95F1F720988AEA8A95F1F7DB
:1000D00000C078940895F894209A8FEB93E00197EC
:1000E000F1F700C0000020989AEB9A95F1F700C054
:1000F00083B1E3E3F3E03197F1F700C000007894B7
:10010000809581700895F894209A80E18A95F1F79E
:10011000209898E19A95F1F783B192E99A95F1F7D1
:1001200000C0789481700895CF93DF93D82FC8E0F2
:10013000D0FF03C00E945F0002C00E945300D6950A
:10014000C150B1F7DF91CF910895CF93DF93D8E0FD
:10015000C0E0C6950E9483008111C068D150C9F7E4
:100160008C2FDF91CF91089598E0282F262720FD2E
:1001700003C07695679505C028E162277695679557
:1001800060688695915089F7862F0895CF92DF9207
:10019000EF92FF920F931F93CF93DF93CDB7DEB70C
:1001A00029970FB6F894DEBF0FBECDBF0E946B003B
:1001B0008CEC0E94940084E40E9494000E948300CE
:1001C0008823E1F30E946B008CEC0E9494008EEB7C
:1001D0000E949400CE0101967C016E019AE0C90E46
:1001E000D11C87010E94A500F80181938F01CE16D2
:1001F000DF06C1F78E01075F1F4F60E070E0F70177
:1002000081917F010E94B400682F70E00E151F05D8
:10021000B1F7898590E06817790719F489819A8187
:1002200002C080ED97E029960FB6F894DEBF0FBEAE
:10023000CDBFDF91CF911F910F91FF90EF90DF9095
:10024000CF900895CF92DF92EF92FF920F931F937A
:10025000CF93DF9300D000D01F92CDB7DEB76C01F3
:10026000DE01119695E0FD0111929A95E9F7219A28
:10027000299AFFEF20E782E0F15020408040E1F72B
:1002800000C000002998A7EEB3E01197F1F700C075
:100290000000299A2198BAE6BA95F1F700C0199999
:1002A0006BC0E5EDEA95F1F70000199B67C0F5ED2D
:1002B000FA95F1F700008E010F5F1F4F7E0126E0D7
:1002C000E20EF11CE1E0F0E027C02150310919F401
:1002D00057C029EC30E0199BF8CF80E58A95F1F7FB
:1002E000199B08C09F01042E02C0220F331F0A94DD
:1002F000E2F7922B29EC30E004C02150310909F4D7
:1003000041C01999FACF4150510918F7D8019D936E
:100310008D01EA16FB0621F047E050E090E0D9CFCE
:10032000219A299ABFEFE0E7F2E0B150E040F040B7
:10033000E1F700C0000059812A814B818C81952F03
:10034000920F940F980F3D8193131EC030E0352B10
:1003500090E0942B992344F49F779195819591098E
:10036000D6018D939C9303C0F60191838083DB01BA
:100370002D933C9380E009C08FEF07C08FEF05C03D
:100380008FEF03C08FEF01C08FEF0F900F900F9092
:100390000F900F90DF91CF911F910F91FF90EF90F1
:1003A000DF90CF900895CF93DF9300D0CDB7DEB725
:1003B0001A821982BC01CE0101960E9422010F907F
:1003C0000F90DF91CF910895CF93DF9300D0CDB7F9
:1003D000DEB72CE231E040E450E060E470E080E819
:1003E00090E00E94A7030E94820480E091E00E94B6
:1003F0009B040F2EF1E7CF2EF2E0DF2EF02D0F2E13
:10040000FDEC7F2EF02D0F2EF9E1EF2EF1E0FF2E07
:10041000F02D0E94C6005C018F7099278C9D900181
:100420008D9D300D9C9D300D112436952795369568
:100430002795ABE7B4E10E9450054C019694879450
:100440008501129502950F7001271F700127CE01BB
:1004500001960E94D3014CE251E0B50180EC91E09D
:100460000E94D403AC015058A980BA809A01ADEC27
:10047000BCEC0E945005FC01F695E795F695E795D2
:10048000F695E7959F01220F331FCF01880F991F23
:10049000880F991F880F991F820F931F9A01281B9D
:1004A000390BC9019F932F939F010E945005969588
:1004B000879596958795969587959C01220F331F72
:1004C000880F991F880F991F880F991F820F931FFC
:1004D000E81BF90BFF93EF939A0136952795369514
:1004E0002795ABE7B4E10E945005FC01F695E7952E
:1004F0009F01ADECBCEC0E945005969587959695B2
:100500008795969587959C01220F331F880F991F19
:10051000880F991F880F991F820F931FE81BF90BF3
:10052000FF93EF939A013695279536952795369543
:100530002795A5ECB0E20E945005FC01F295E295EA
:10054000EF70EF27FF70EF279F01ADECBCEC0E942E
:1005500050059695879596958795969587959C01D4
:10056000220F331F880F991F880F991F880F991F1B
:10057000820F931FE81BF90BFF93EF939A013295BB
:1005800022952F7023273F702327A7E4B3E00E9412
:100590005005AC0156954795569547955695479504
:1005A0009A01ADECBCEC0E94500596958795969506
:1005B0008795969587959C01220F331F880F991F69
:1005C000880F991F880F991F820F931F481B590B83
:1005D0005F934F9395010E945005AC015695479546
:1005E00056954795569547959A01220F331FCA0194
:1005F000880F991F880F991F880F991F820F931FCB
:100600009501281B390BC9019F932F939A010E94D2
:1006100050059695879596958795969587959C0113
:10062000220F331F880F991F880F991F880F991F5A
:10063000820F931F481B590B5F934F93950136957B
:10064000279536952795ABE7B4E10E945005AC019C
:10065000569547959A01ADECBCEC0E9450059695D5
:10066000879596958795969587959C01220F331FC0
:10067000880F991F880F991F880F991F820F931F4A
:10068000481B590B5F934F93879C812D11248695AE
:1006900086958695282F220F922F990F990F920FEA
:1006A000891A1F928F92879D912D11249695969568
:1006B0009695990F292F220F220F920F891B1F92B7
:1006C0008F9398010E9450059695879596958795EA
:1006D000969587959C01220F331F880F991F880FCD
:1006E000991F880F991F820F931F9801281B390BA0
:1006F000C9019F932F9398010E945005AC01569514
:10070000479556954795569547959A010E945005ED
:100710009695879596958795969587959C01220F36
:10072000331F880F991F880F991F880F991F820FF9
:10073000931F481B590B5F934F93FF92EF920E94B8
:10074000B1040FB6F894DEBF0FBECDBF62CECF931B
:10075000DF93FB01E9011A821B821C821D82198230
:1007600018829F838E83798768875B874A87BC015D
:100770006F5F7F4F8FEF9FE70E94FB047D876C8741
:100780009F012F5F3F4F032E000C440B550B6FEF63
:100790007FEF8FEF9FE30E9431052E873F87488BC5
:1007A000598BDF91CF910895EF92FF920F931F9392
:1007B000CF93DF938B01FA01861B970B2485358538
:1007C0002817390784F0319521953109821793074D
:1007D0006CF026813781829FE001839FD00D929F2C
:1007E000D00D112405C0CFEFDFE702C0C1E0D0E893
:1007F000092E000CAA0BBB0B4281538164817581C9
:100800009A01AB01280F391F4A1F5B1F8685978508
:10081000A089B18982179307A407B5074CF4828396
:100820009383A483B5836FEF7FEF8FEF9FE31DC0AA
:10083000B095A095909581959F4FAF4FBF4F2817CA
:1008400039074A075B074CF482839383A483B583FB
:1008500061E070E080E090EC08C022833383448341
:100860005583A085B1850E945F0520813181201BC1
:10087000310BA285B3852A9F70012B9FF00C3A9F04
:10088000F00C1124118300838E01DD0F220B330B3A
:10089000AB01BC01400F511F621F731FC701FF0C4A
:1008A000AA0BBB0B480F591F6A1F7B1FDB01CA0134
:1008B000772324F481589F4FAF4FBF4F689416F8A9
:1008C000B595A795979587951694D1F7813020E82F
:1008D00092072FEFA207B20724F481E090E8AFEF70
:1008E000BFEF811520E89207A105B10524F08FEF35
:1008F0009FE7A0E0B0E0DF91CF911F910F91FF90B3
:10090000EF9008951092C50088E08093C400E0EC59
:10091000F0E080818260808388E18093C10086E07E
:100920008093C2000895E0ECF0E0908195FFFDCF48
:100930008093C60008950F931F93CF93FC0180818D
:10094000882359F08F01C0E00E949304CF5FF80123
:10095000EC0FF11D80818111F7CFCF911F910F9185
:100960000895AF92BF92CF92DF92EF92FF921F93C2
:10097000CF93DF93CDB7DEB7FE013C96E190F190C7
:100980006F0110E026C0853251F4F601808192E0BB
:10099000C90ED11C805D0E9493041F5F1AC084326F
:1009A00059F45601E2E0AE0EB11CF60180810E94BE
:1009B00093041F5F65010DC0863241F4F701E20F19
:1009C000F31F81810E9493041E5F03C00E94930461
:1009D0001F5F212F30E0F701E20FF31F80818111AB
:1009E000D2CFDF91CF911F91FF90EF90DF90CF900A
:1009F000BF90AF90089597FB072E16F4009407D090
:100A000077FD09D00E94670507FC05D03EF490955C
:100A100081959F4F0895709561957F4F0895A1E24C
:100A20001A2EAA1BBB1BFD010DC0AA1FBB1FEE1F68
:100A3000FF1FA217B307E407F50720F0A21BB30BB3
:100A4000E40BF50B661F771F881F991F1A9469F72F
:100A500060957095809590959B01AC01BD01CF018B
:100A60000895052E97FB1EF400940E94480557FD3B
:100A700007D00E940F0507FC03D04EF40C944805E4
:100A800050954095309521953F4F4F4F5F4F0895BA
:100A900090958095709561957F4F8F4F9F4F0895EA
:100AA000A29FB001B39FC001A39F700D811D1124AF
:100AB000911DB29F700D811D1124911D0895B7FFE6
:100AC0000C947B050E947B05821B930B0895AA1B47
:100AD000BB1B51E107C0AA1FBB1FA617B70710F029
:100AE000A61BB70B881F991F5A95A9F7809590955B
:100AF000BC01CD0108950E945005A59F900DB49FA3
:100B0000900DA49F800D911D11240895F894FFCF9E
:100B10006468743232206473313862323020706914
:100B20006420746573740D0A0025252E2525202563
:0C0B3000252E252025252525250D0A0051
:00000001FF
