:100000000C9434000C9451000C9451000C94510049
:100010000C9451000C9451000C9451000C9451001C
:100020000C9451000C9451000C9451000C9451000C
:100030000C9451000C9451000C9451000C945100FC
:100040000C9451000C9451000C9451000C945100EC
:100050000C9451000C9451000C9451000C945100DC
:100060000C9451000C94510011241FBECFEFD8E026
:10007000DEBFCDBF11E0A0E0B1E0EAE4FBE002C0EA
:1000800005900D92A033B107D9F721E0A0E3B1E0CC
:1000900001C01D92AE3AB207E1F70E94C9020C946A
:1000A000A3050C940000F894209A80EA8A95F1F751
:1000B00020988AE18A95F1F700C078940895F89421
:1000C000209A80E18A95F1F720988AEA8A95F1F7DB
:1000D00000C078940895F894209A8FEB93E00197EC
:1000E000F1F700C0000020989AEB9A95F1F700C054
:1000F00083B180958170E3E3F3E03197F1F700C0BD
:10010000000078940895F894209A80E18A95F1F798
:10011000209898E19A95F1F783B192E99A95F1F7D1
:1001200000C0789481700895CF93DF93D82FC8E0F2
:10013000D0FF03C00E945F0002C00E945300D6950A
:10014000C150B1F7DF91CF910895CF93DF93D8E0FD
:10015000C0E0C6950E9483008111C068D150C9F7E4
:100160008C2FDF91CF91089598E0282F262720FD2E
:1001700003C07695679505C028E162277695679557
:1001800060688695915089F7862F08950E946B00CC
:100190008CEC0E94940084E40C949400CF92DF9243
:1001A000EF92FF920F931F93CF93DF93CDB7DEB7FC
:1001B00029970FB6F894DEBF0FBECDBF0E946B002B
:1001C0008CEC0E9494008EEB0E9494008E010F5FD5
:1001D0001F4F6E018AE0C80ED11C78010E94A50055
:1001E000F70181937F01EC15FD05C1F77E01F9E070
:1001F000EF0EF11C60E070E0F80181918F010E9428
:10020000B400682F70E00E151F05B1F7898590E0E6
:100210006817790719F489819A8102C080ED97E007
:1002200029960FB6F894DEBF0FBECDBFDF91CF91F8
:100230001F910F91FF90EF90DF90CF900895EF9274
:10024000FF920F931F93CF93DF9300D000D01F92A4
:10025000CDB7DEB7FE01319625E0DF011D922A956C
:10026000E9F7219A299ABFEF20E732E0B150204008
:100270003040E1F700C000002998A7EEB3E01197E5
:10028000F1F700C00000299A2198BAE6BA95F1F773
:1002900000C0199B02C08FEF64C025ED2A95F1F7CD
:1002A0000000199BF8CF35ED3A95F1F700008E016B
:1002B0000A5F1F4FEE24E394F12C27E030E040E08A
:1002C000A9ECB0E0199903C01197E1F7E4CF50E52C
:1002D0005A95F1F7199B07C0D701022E01C0AA0F4A
:1002E0000A94EAF74A2BA9ECB0E0199B03C01197D6
:1002F000E1F7D1CF2150310918F741930E171F07AD
:10030000E1F6219A299ABFEFE0E7F2E0B150E04030
:10031000F040E1F700C0000049815A815427452789
:1003200054272B813C81322723273227F981EA8108
:10033000EF0FFB81EF0FFC81EF0FFD81EF13ABCFD0
:1003400037FF08C03F77319521953109DC012D93A6
:100350003C9303C0FC0131832083DB014D935C930C
:1003600080E00F900F900F900F900F90DF91CF9142
:100370001F910F91FF90EF900895CF93DF9300D0DE
:10038000CDB7DEB71A821982BC01CE0101960E9458
:100390001F010F900F90DF91CF910895609131016F
:1003A000709132014BE951E080EC91E00E944003F2
:1003B000292F221F2227221F209336019C0197FFFD
:1003C00003C03195219531093093350120933401D3
:1003D00041E06091330188E391E00C94B704AF925F
:1003E000BF92CF92DF92EF92FF920F931F93CF9322
:1003F000DF932091310130913201B9016F7077277D
:1004000041E752E0649FC001659F900D749F900D7D
:100410001124C4E6D0E0BE010E941105462F8901D7
:1004200084E0169507958A95E1F720913401309183
:100430003501EAE0F0E0C901BF010E942505B82EB0
:10044000A92ECB01BF010E942505D82EC92EC901B6
:10045000BE010E942505CB01BF010E942505F82E93
:10046000E92EC90168EE73E00E942505CB01BF01AA
:100470000E942505EC01C90160E177E20E94250593
:1004800080913601811102C080E201C08DE2E091CD
:100490009901F0919A01AF92BF92CF92DF92EF92C1
:1004A000FF92DF93CF937F936F931F928F932AE0F6
:1004B00030E0CF01B9010E9411059F938F93CB01CA
:1004C000B9010E9411059F938F93CF0164E670E0FC
:1004D0000E941105CB01B9010E9411059F938F93D2
:1004E000842F6AE00E9405051F929F931F928F93AD
:1004F000C801B9010E9411059F938F93CB01B901E7
:100500000E9411059F938F9380E091E09F938F93BA
:100510000E941A0440E06091AD0188E391E00E94DE
:10052000B7048DB79EB74C960FB6F8949EBF0FBE1A
:100530008DBF40E06091330188E391E0DF91CF917E
:100540001F910F91FF90EF90DF90CF90BF90AF90F1
:100550000C94B7040E94C60089E991E00E94BD0195
:1005600080913001882389F00E948300882369F0FC
:100570000E94CE00909332018093310141E060915E
:10058000AD0188E391E00C94B70481E080933001E1
:10059000089588E391E00E947C046AEA72E088E3AF
:1005A00091E00E949C048093AD016EEC71E088E3C1
:1005B00091E00E949C04809333016FEE71E088E328
:1005C00091E00E949C04809337016091AD0120E08E
:1005D000462F88E391E00E94BC0421E04091AD01E8
:1005E0006091330188E391E00E94BC0421E04091D6
:1005F00033016091370188E391E00E94BC042BE94C
:1006000031E040E450E060E470E080E890E00E9477
:1006100013030E94EB0387E191E00E94040488E346
:1006200091E00E94EB04CF93DF93FB01E9011A8272
:100630001B821C821D82198218829F838E83798778
:1006400068875B874A87BC016F5F7F4F8FEF9FE7AB
:100650000E9425057D876C879F012F5F3F4F032EEA
:10066000000C440B550B6FEF7FEF8FEF9FE30E9461
:100670005B052E873F87488B598BDF91CF9108957B
:10068000EF92FF920F931F93CF93DF938B01FA01A9
:100690009C01261B370B848595858217930784F070
:1006A000919581959109281739076CF0868197817A
:1006B000289FE001299FD00D389FD00D112405C03F
:1006C000CFEFDFE702C0C1E0D0E8C901330FAA0BCA
:1006D000BB0B42815381648175819A01AB01280F64
:1006E000391F4A1F5B1F86859785A089B1898217AC
:1006F0009307A407B5074CF482839383A483B5833F
:100700006FEF7FEF8FEF9FE31DC0B095A0959095A1
:1007100081959F4FAF4FBF4F281739074A075B0797
:100720004CF482839383A483B58361E070E080E01E
:1007300090EC08C02283338344835583A085B18520
:100740000E94890520813181201B310BA285B38550
:100750002A9F70012B9FF00C3A9FF00C11241183FB
:1007600000838E01DD0F220B330BAB01BC01400F68
:10077000511F621F731FC701FF0CAA0BBB0B8A011D
:100780009B01080F191F2A1F3B1FC901B80120E850
:1007900030E040E050E00E945B05213010E8310776
:1007A0001FEF4107510724F421E030E84FEF5FEFDE
:1007B000DA01C901811520E89207A105B10524F0ED
:1007C0008FEF9FE7A0E0B0E0DF91CF911F910F91F5
:1007D000FF90EF9008951092C50088E08093C400C8
:1007E000E0ECF0E080818260808388E18093C1004A
:1007F00086E08093C2000895E0ECF0E0908195FFE0
:10080000FDCF8093C60008950F931F93CF93FC01F3
:100810008081882359F08F01C0E00E94FC03CF5FE4
:10082000F801EC0FF11D80818111F7CFCF911F915D
:100830000F910895AF92BF92CF92DF92EF92FF9205
:100840001F93CF93DF93CDB7DEB7FE013C96E190C7
:10085000F1906F0110E026C0853251F4F6018081DD
:1008600092E0C90ED11C805D0E94FC031F5F1AC07C
:10087000843259F45601E2E0AE0EB11CF6018081DB
:100880000E94FC031F5F65010DC0863241F4F70131
:10089000E20FF31F81810E94FC031E5F03C00E94D0
:1008A000FC031F5F212F30E0F701E20FF31F80816F
:1008B0008111D2CFDF91CF911F91FF90EF90DF9008
:1008C000CF90BF90AF90089548E050E062E070E0B4
:1008D0000E949C050895CF93DF93EC01FC011192D7
:1008E000CF0148E050E062E070E00E949C051A866B
:1008F0001986DF91CF910895EF92FF920F931F9386
:10090000CF93DF937C010E946404E701289687015E
:10091000005A1F4FCE010E946B042B96C017D107BF
:10092000C9F7F701E05AFF4F1082DF91CF911F9175
:100930000F91FF90EF9008959C01FC01E05AFF4F4A
:100940008081883098F4F9019BE0899FE00DF11DCA
:100950001124728B618BD901A80FB11D1C92808765
:10096000F901E05AFF4F91E0980F90830895860FA8
:10097000911DFC01408308953BE0639F800D911D14
:100980001124FC01E40FF11D21870895DC012BE007
:10099000629FA00DB11D11241996FC019C01285FD6
:1009A0003F4F9D91923019F08081981306C0319687
:1009B000E217F307B1F781E0089580E008952BE096
:1009C000629F800D911D1124DC015196ED91FC91E7
:1009D0005297099508958C017C0180E6E80EF11C80
:1009E000F70180818823E1F3C0E06C2FC8010E94E9
:1009F000C604882321F06C2FC8010E94DF04CF5F5A
:100A0000F7018081C81788F3EBCF991B79E004C008
:100A1000991F961708F0961B881F7A95C9F780953D
:100A20000895AA1BBB1B51E107C0AA1FBB1FA61735
:100A3000B70710F0A61BB70B881F991F5A95A9F787
:100A400080959095BC01CD01089597FB072E16F473
:100A5000009407D077FD09D00E94110507FC05D04E
:100A60003EF4909581959F4F0895709561957F4FC5
:100A70000895A1E21A2EAA1BBB1BFD010DC0AA1FDF
:100A8000BB1FEE1FFF1FA217B307E407F50720F0F7
:100A9000A21BB30BE40BF50B661F771F881F991F72
:100AA0001A9469F760957095809590959B01AC01BB
:100AB000BD01CF010895052E97FB1EF400940E94FE
:100AC000720557FD07D00E94390507FC03D04EF48C
:100AD0000C94720550954095309521953F4F4F4F9E
:100AE0005F4F089590958095709561957F4F8F4FDA
:100AF0009F4F0895A29FB001B39FC001A39F700DA7
:100B0000811D1124911DB29F700D811D1124911D15
:100B10000895B7FF0C9491050E949105821B930BD9
:100B200008950E947A05A59F900DB49F900DA49FF3
:100B3000800D911D11240895DC0101C06D93415079
:0A0B40005040E0F70895F894FFCF4D
:100B4A0025252E2525432025252E25262520242525
:100B5A00252525250D0A0064687432322064733114
:100B6A00386232302070696420746573740D0A002B
:00000001FF
