:100000000C94B5000C94D2000C94D2000C94D20045
:100010000C94D2000C94D2000C94D2000C94D20018
:100020000C94D2000C94D2000C94D2000C94D20008
:100030000C94D2000C9462020C94D2000C94D20066
:100040000C94D2000C94D2000C94D2000C94D200E8
:100050000C94D2000C94D2000C94D2000C94D200D8
:100060000C94D2000C94D2006E616E00696E660032
:1000700000407A10F35A00A0724E18090010A5D45F
:10008000E80000E87648170000E40B54020000CABC
:100090009A3B000000E1F505000080969800000002
:1000A00040420F000000A086010000001027000061
:1000B0000000E803000000006400000000000A00E7
:1000C000000000000100000000002C76D888DC67EA
:1000D0004F0823DFC1DFAE59E1B1B796E5E3E45342
:1000E000C63AE651997696E8E6C28426EB898C9B5F
:1000F00062ED407C6FFCEFBC9C9F40F2BAA56FA5FF
:10010000F490055A2AF75C936B6CF9676DC11BFC80
:10011000E0E40D47FEF520E6B500D0ED902E03009B
:10012000943577050080841E080000204E0A0000E8
:1001300000C80C333333330F986E12831141EF8DA7
:100140002114893BE65516CFFEE6DB18D1844B38E7
:100150001BF77C1D901DA4BBE424203284725E2218
:100160008100C9F124ECA1E53D2711241FBECFEF8A
:10017000D8E0DEBFCDBF11E0A0E0B1E0ECEBF6E1EE
:1001800002C005900D92A633B107D9F721E0A6E38E
:10019000B1E001C01D92AF33B207E1F70E948702C0
:1001A0000C945C0B0C940000209A80EA8A95F1F77D
:1001B00020988AE18A95F1F700C00895209A80E19D
:1001C0008A95F1F720988AEA8A95F1F700C0089598
:1001D000209A8FEB93E00197F1F700C00000209880
:1001E0009AEB9A95F1F700C083B1E3E3F3E031971E
:1001F000F1F700C00000809581700895209A80E199
:100200008A95F1F7209898E19A95F1F783B192E9F0
:100210009A95F1F700C081700895CF93DF93D82F9E
:10022000C8E0D0FF03C00E94DE0002C00E94D400DC
:10023000D695C150B1F7DF91CF910895CF93DF9359
:10024000D8E0C0E0C6950E94FE008111C068D15080
:10025000C9F78C2FDF91CF91089598E0282F26279A
:1002600020FD03C07695679505C028E16227769545
:10027000679560688695915089F7862F0895CF938A
:1002800080913701882371F060E080E00E9488014E
:10029000C82F60E080E00E948801C07F82958F7047
:1002A0008C2B04C060E080E00E948801CF9108950B
:1002B000CF93DF93C82FD62F411105C008C085E327
:1002C0008A95F1F700000E943F018823C4F35C98EF
:1002D000DD2311F02E9A01C02E9887B18F6087B967
:1002E0008C2F82958F7098B1282F206F922398B908
:1002F00098B1892B88B92F9A82E08A95F1F700C0CE
:100300002F9882E08A95F1F700C0DF91CF91089590
:10031000CF93C82F611105C008C085E38A95F1F716
:1003200000000E943F018823C4F35C9ACC2311F0A3
:100330002E9A01C02E9887B1807F87B92F9A92E0BC
:100340009A95F1F700C086B12F9892E09A95F1F74F
:1003500000C08295807FCF910895CF93C82F809160
:100360003701882369F041E060E08C2F0E9458013A
:1003700040E060E08C2F8295807F0E94580106C08B
:100380004091360160E08C2F0E945801CF91089572
:10039000CF93C82F80913701882369F041E061E055
:1003A0008C2F0E94580140E061E08C2F8295807F65
:1003B0000E94580106C04091360161E08C2F0E94D6
:1003C0005801CF9108951092370110923601279A63
:1003D000549A269A8FE295E70197F1F700C0000042
:1003E00080E30E94AD0187E090E20197F1F700C041
:1003F000000080E30E94AD0187EC90E00197F1F7E7
:1004000000C0000080E30E94AD018FEC97E00197EF
:10041000F1F700C0000080E20E94AD018FEC97E090
:100420000197F1F700C0000081E0809337018093CD
:10043000360188E20E94AD0188E00E94AD0181E0B2
:100440000E94AD0186E00E94AD018CE00E94AD01EA
:1004500008950F931F93CF93FC018081882359F057
:100460008F01C0E0CF5F0E94C801F801EC0FF11DC1
:1004700080818111F7CFCF911F910F91089590E462
:10048000699F800D112480680E94AD0108950F932B
:100490001F93CF93DF938C01862F8770880F880F6F
:1004A000880F805C0E94AD01E801085F1F4F8991B1
:1004B0000E94C801C017D107D1F7DF91CF911F91DA
:1004C0000F9108951F920F920FB60F9211248F93E0
:1004D0009F93AF93BF9380913B0190913C01A0917A
:1004E0003D01B0913E010196A11DB11D80933B01DC
:1004F00090933C01A0933D01B0933E01BF91AF9119
:100500009F918F910F900FBE0F901F901895CF93D2
:10051000DF93CDB7DEB7A8970FB6F894DEBF0FBE56
:10052000CDBF459A2FEF84E39CE02150804090405E
:10053000E1F700C0000084B5836A84BD85B58160A1
:1005400085BD80E287BD88BD8AB184668AB9E0E84E
:10055000F0E0808183608083E1E8F0E08081886161
:10056000808383E294EF9093890080938800AFE6C4
:10057000B0E08C9181608C938081836080837894DB
:100580000E94E30160E082E091E00E94470282E184
:1005900091E00E9429020E948C048CE191E00E946B
:1005A0009E040E94E8008CEC0E940D0184E40E94ED
:1005B0000D010F2EF4E86F2E712CF02D0F2EF0ECA4
:1005C000CF2ED12CF02D8E01095D1F4F7E01A6E2AA
:1005D000EA0EF11CFE017596F8A7EFA30F2EFFE7B8
:1005E000AF2EF02D359904C010923A0186B183C028
:1005F000B0903A01BB2009F48DC1D3014D915C91BB
:1006000020903B0130903C0140903D0150903E01D4
:100610009A01A5E2B6E00E945309481B590B569572
:100620004795FC01E40FF51F0024EE0FFF1F001C8F
:10063000EE0FFF1F001CEF2FF02DA4EFB1E0A20181
:1006400091010E946209AB01BC014E0F5F1F611D49
:10065000711D8B2D90E0C296092E000CAA0BBB0BCE
:1006600084179507A607B70708F051C1E091390133
:10067000EF5FE0933901D3014D915C9120903B01F4
:1006800030903C0140903D0150903E019A01A5E21E
:10069000B6E00E945309481B590B56954795840FA5
:1006A000951F0024880F991F001C880F991F001C9C
:1006B000892F902DB4EFB29D800D112480933A01C3
:1006C000E77069F480913801813118F48F5F80936D
:1006D00038018091380181508295807F87BD359B9C
:1006E0000AC080913A01882331F010923A011092A9
:1006F000380110923901F6018081882334F4A6EC88
:10070000B0E08C918F528093010180910101815062
:10071000803198F4569A80913801811106C08091F9
:10072000010181508295807F87BD80910101880FF2
:10073000880F880F895888BD07C0809138018111C2
:1007400002C0569817BCA8BC0E94FE00882309F47A
:1007500049CF0E94E8008CEC0E940D018EEB0E94B4
:100760000D015E01BEE1AB0EB11C45010E941E01F0
:10077000F40181934F01E017F107C1F760E070E0E9
:10078000D5018D915D010E942D01682F70E0AE149E
:10079000BF04B1F78EA190E06817790709F0AEC0E9
:1007A0002E8C3F8C032C000C44085508C201B1016B
:1007B0000E94B40420E030E040E85DE30E941805A8
:1007C000862E972EA82EB92EA4E6B0E0A2019101A4
:1007D0000E946209DC01CB01689413F8B595A795D6
:1007E000979587951694D1F79F938F9383E291E025
:1007F0009F938F931F920F2EF9E05F2EF02D5F9243
:10080000B8A5BF93EFA1EF930E94CE0ACE01459603
:100810000E949E04BF92AF929F928F9288E291E0D5
:100820009F938F931F925F92F8A5FF932FA12F9311
:100830000E94CE0A0FB6F894DEBF0FBECDBF8091E6
:100840000001811103C08EE091E002C08AE091E0D6
:100850009F938F938FE291E09F938F931F9284E1F8
:100860008F93A1E0B0E0AC0FBD1FBF93AF930E9488
:10087000CE0A81E00E94AD0160E080E00E943F026C
:10088000CE0145960E94290280E00E94C80184E3BF
:1008900091E00E94290261E080E00E943F02CE01C7
:1008A00001960E9429020FB6F894DEBF0FBECDBF9D
:1008B00020E030E048EC51E4682D792D8A2D9B2D05
:1008C0000E94130588231CF01092000116C020E03E
:1008D00030E044EC51E4682D792D8A2D9B2D0E9447
:1008E000AD04181624F081E08093000104C08091CB
:1008F0000001882311F05A9A01C05A980E94E8001A
:100900008CEC0E940D0184E40E940D0167CE3599A4
:10091000ECCEF1CE86B1EFCE88E18093C10086E0C7
:100920008093C20083E38093C4000895E0ECF0E07C
:10093000908195FFFDCF8093C6000895CF93DF93FC
:10094000EC018881882331F021960E9496048991D8
:100950008111FBCFDF91CF9108950E94EF0408F43D
:1009600081E00895E89409C097FB3EF49095809546
:10097000709561957F4F8F4F9F4F9923A9F0F92F65
:1009800096E9BB279395F695879577956795B795E3
:10099000F111F8CFFAF4BB0F11F460FF1BC06F5FC9
:1009A0007F4F8F4F9F4F16C0882311F096E911C0DB
:1009B000772321F09EE8872F762F05C0662371F0FC
:1009C00096E8862F70E060E02AF09A95660F771F10
:1009D000881FDAF7880F9695879597F90895990FEC
:1009E0000008550FAA0BE0E8FEEF16161706E807F9
:1009F000F907C0F012161306E407F50798F0621B1A
:100A0000730B840B950B39F40A2661F0232B242BEE
:100A1000252B21F408950A2609F4A140A6958FEF0D
:100A2000811D811D08950E94EF0408F48FEF089541
:100A30000E942B050C949C050E948E0538F00E94A4
:100A4000950520F0952311F00C9485050C948B05E9
:100A500011240C94D0050E94AD0570F3959FC1F34D
:100A6000950F50E0551F629FF001729FBB27F00D5C
:100A7000B11D639FAA27F00DB11DAA1F649F6627B1
:100A8000B00DA11D661F829F2227B00DA11D621F00
:100A9000739FB00DA11D621F839FA00D611D221FBA
:100AA000749F3327A00D611D231F849F600D211D9E
:100AB000822F762F6A2F11249F5750409AF0F1F021
:100AC00088234AF0EE0FFF1FBB1F661F771F881F8A
:100AD00091505040A9F79E3F510580F00C94850538
:100AE0000C94D0055F3FE4F3983ED4F38695779558
:100AF0006795B795F795E7959F5FC1F7FE2B880F30
:100B0000911D9695879597F9089597F99F6780E8C5
:100B100070E060E008959FEF80EC089500240A944F
:100B20001616170618060906089500240A941216C8
:100B30001306140605060895092E0394000C11F4FB
:100B4000882352F0BB0F40F4BF2B11F460FF04C0A8
:100B50006F5F7F4F8F4F9F4F089557FD9058440F01
:100B6000551F59F05F3F71F04795880F97FB991F0C
:100B700061F09F3F79F087950895121613061406C9
:100B8000551FF2CF4695F1DF08C016161706180656
:100B9000991FF1CF86957105610508940895E89431
:100BA000BB2766277727CB0197F90895A0E1B0E02E
:100BB000ECEDF5E00C946D097C011B016A01FC0170
:100BC00017821682838181FF44C39E012F5F3F4FAE
:100BD0003901F7019381F10193FD859193FF819193
:100BE0001F01882309F431C3853239F493FD8591BF
:100BF00093FF81911F01853239F4B70190E00E9483
:100C0000920A56016501E5CF10E0512C912CFFE1CD
:100C1000F915D8F08B3279F038F4803279F08332DC
:100C2000A1F4F92DF0612EC08D3261F0803369F4AA
:100C3000292D21602DC0392D3260932E892D84609D
:100C4000982E2AC0E92DE86015C097FC2DC020ED34
:100C5000280F2A3088F496FE06C03AE0139F200D34
:100C60001124122F19C08AE0589E200D1124522EF3
:100C7000E92DE0629E2E10C08E3231F496FCE5C262
:100C8000F92DF0649F2E08C08C3621F4292D2068A0
:100C9000922E02C0883641F4F10193FD859193FFB5
:100CA00081911F018111B3CF9BEB980F933020F4FA
:100CB000992D9061805E07C09BE9980F933008F0F2
:100CC00066C1992D9F7E96FF16E09F73992E8536FB
:100CD00019F49064992E08C0863621F4392F3068B3
:100CE000932E02C01111115097FE07C01C3350F40F
:100CF00044244394410E27E00BC0183038F027E01D
:100D000017E005C027E09CE3492E02C0212F412CAB
:100D1000560184E0A80EB11CF601608171818281C8
:100D20009381042DA3010E94A4096C01F981FC8721
:100D3000F0FF02C0F3FF06C091FC06C092FE06C0A1
:100D400000E205C00DE203C00BE201C000E08C85AB
:100D50008C7019F001115AC29BC297FE10C04C0C46
:100D6000FC85F4FF04C08A81813309F44A94141489
:100D700074F528E0241578F588E0482E2CC096FC00
:100D80002AC0812F90E08C159D059CF03CEFC31686
:100D90003FEFD30674F0892D8068982E0AC0E2E0F8
:100DA000F0E0EC0FFD1FE10FF11D8081803319F49D
:100DB00011501111F4CF97FE0EC044244394410EFC
:100DC000812F90E0C816D9062CF41C1904C04424C5
:100DD000439401C010E097FE06C01C141D0434F4B7
:100DE000C601019605C085E090E002C081E090E078
:100DF00001110196112331F0212F30E02F5F3F4F79
:100E0000820F931F252D30E08217930714F4581A90
:100E100001C0512C892D897049F4552039F0B70152
:100E200080E290E00E94920A5A94F7CF002329F0C2
:100E3000B701802F90E00E94920A93FC09C05520D0
:100E400039F0B70180E390E00E94920A5A94F7CFFC
:100E500097FE4CC04601D7FE02C0812C912CC601E2
:100E600088199909F301E80FF91FFE87ED879601AC
:100E700024193109388B2F87012F10E01195019526
:100E800011093FEF8316930629F4B7018EE290E033
:100E90000E94920AC814D9044CF08F85988988154D
:100EA000990524F4ED85FE85818101C080E3F1E0A0
:100EB0008F1A91082D853E852F5F3F4F3E872D87E6
:100EC000801691062CF0B70190E00E94920AD9CFCB
:100ED000C814D90441F49A81963320F4953319F457
:100EE0003C8534FF81E3B70190E04EC08A818133B5
:100EF00019F09C859F7E9C87B70190E00E94920A22
:100F0000111105C094FC18C085E690E017C0B70128
:100F10008EE290E00E94920A1E5F82E001E0080FDC
:100F2000F301E80FF11D8081B70190E00E94920A61
:100F3000802F0113F3CFE6CF85E490E0B7010E9444
:100F4000920AD7FC06C0C114D10441F4EC85E4FF39
:100F500005C0D194C194D1088DE201C08BE2B701E4
:100F600090E00E94920A80E32AE0C216D1042CF09D
:100F70008F5FFAE0CF1AD108F7CFB70190E00E9457
:100F8000920AB701C601C0960E94920A54C18336E4
:100F900031F0833779F0833509F056C020C056010F
:100FA00032E0A30EB11CF6018081898301E010E0DC
:100FB000630112C05601F2E0AF0EB11CF601C08011
:100FC000D18096FE03C0612F70E002C06FEF7FEF0B
:100FD000C6010E94870A8C01F92DFF7714C05601C3
:100FE00022E0A20EB11CF601C080D18096FE03C0A3
:100FF000612F70E002C06FEF7FEFC6010E947C0A94
:101000008C01F92DF0689F2EF3FD1AC0852D90E01C
:1010100008171907A8F4B70180E290E00E94920A2D
:101020005A94F4CFF60197FC859197FE81916F0158
:10103000B70190E00E94920A51105A940150110990
:101040000115110579F7F7C0843611F0893661F57D
:10105000560197FE09C024E0A20EB11CF601608182
:101060007181828193810AC0F2E0AF0EB11CF6015A
:1010700060817181072E000C880B990BF92DFF768A
:101080009F2E97FF09C090958095709561957F4F31
:101090008F4F9F4FF0689F2E2AE030E0A3010E94FF
:1010A000FE0AC82EC6183FC0092D853721F40F7ED1
:1010B0002AE030E01DC0097F8F3691F018F48835A2
:1010C00059F0C3C0803719F0883711F0BEC00061F5
:1010D00004FF09C0046007C094FE08C0066006C093
:1010E00028E030E005C020E130E002C020E132E03D
:1010F000560107FF09C084E0A80EB11CF60160810B
:1011000071818281938108C0F2E0AF0EB11CF601BB
:101110006081718180E090E0A3010E94FE0AC82EE8
:10112000C6180F77902E96FE0BC0092D0E7FC116A4
:1011300050F494FE0AC092FC08C0092D0E7E05C032
:10114000DC2C092D03C0DC2C01C0D12E04FF0DC006
:10115000FE01EC0DF11D8081803311F4097E09C080
:1011600002FF06C0D394D39404C0802F867809F080
:10117000D39403FD11C000FF06C01C2DD51480F4CC
:10118000150D1D190DC0D51458F4B70180E290E07B
:101190000E94920AD394F7CFD51410F45D1801C0C1
:1011A000512C04FF10C0B70180E390E00E94920A26
:1011B00002FF17C001FD03C088E790E002C088E588
:1011C00090E0B7010CC0802F867859F001FF02C073
:1011D0008BE201C080E207FD8DE2B70190E00E9442
:1011E000920AC11638F4B70180E390E00E94920A97
:1011F0001150F7CFCA94F301EC0DF11D8081B701B6
:1012000090E00E94920AC110F5CF15C0F4E0F515E8
:1012100060F584E0581A93FE1FC0011127C02C8589
:1012200023FF2AC008E610E0392D3071932EF80113
:101230008491811124C0552009F4E4CCB70180E2E7
:1012400090E00E94920A5A94F6CFF7018681978126
:1012500026C08FEF9FEF23C0B70180E290E00E948D
:10126000920A5A945110F8CFD8CF512CB701802F41
:1012700090E00E94920AD3CF0CE610E0D5CF9110F7
:101280008052B70190E00E94920A0F5F1F4FCFCFAC
:1012900023E0251510F483E0BDCF512CC0CF60961C
:1012A000E2E10C948909A29FB001B39FC001A39F02
:1012B000700D811D1124911DB29F700D811D11248F
:1012C000911D08950E945309A59F900DB49F900D04
:1012D000A49F800D911D112408952F923F924F924B
:1012E0005F926F927F928F929F92AF92BF92CF92B6
:1012F000DF92EF92FF920F931F93CF93DF93CDB7BF
:10130000DEB7CA1BDB0B0FB6F894DEBF0FBECDBF36
:1013100009942A88398848885F846E847D848C8407
:101320009B84AA84B984C884DF80EE80FD800C8110
:101330001B81AA81B981CE0FD11D0FB6F894DEBFF3
:101340000FBECDBFED010895283008F027E0332708
:10135000DA01990F311D87FD9160009661057105D5
:1013600039F432602E5F3D9330E32A95E1F708951A
:101370009F3F30F080387105610509F03C5F3C5FAC
:101380003D93913008F08068911DDF93CF931F93B8
:101390000F93FF92EF92192F987F9695E92F9695CC
:1013A0009695E90FFF27E653FF4F99273327EE2441
:1013B000FF24A701E70105900894079428F4360F4D
:1013C000E71EF81E491F511D660F771F881F991FC2
:1013D0000694A1F70590079428F4E70EF81E491F1C
:1013E000561FC11D770F881F991F661F0694A1F70E
:1013F0000590079428F4F80E491F561FC71FD11DEA
:10140000880F991F661F771F0694A1F70590079410
:1014100020F4490F561FC71FD81F990F661F771F4B
:10142000881F0694A9F784911095177041F0D695FE
:10143000C79557954795F794E7941A95C1F7E0E754
:10144000F0E068941590159135916591959105900E
:101450007FE27395E118F10A430B560BC90BD009D3
:10146000C0F7E10CF11E431F561FC91FD01D7EF4AB
:10147000703311F48A95E6CFE894015030F0080FEC
:101480000AF40027021708F4202F2395022F7A333D
:1014900028F079E37D932A95E9F710C07D932A958A
:1014A00089F6069497956795379517951794E118DF
:1014B000F10A430B560BC90BD00998F023957E9186
:1014C00073957A3308F070E37C932013B8F77E911C
:1014D00070617D9330F0839571E37D9370E32A957D
:1014E000E1F71124EF90FF900F911F91CF91DF91C1
:1014F000992787FD90950895FC01059061507040F3
:101500000110D8F7809590958E0F9F1F0895FC01CC
:101510006150704001900110D8F7809590958E0F22
:101520009F1F08950F931F93CF93DF93FB01238198
:1015300021FD03C08FEF9FEF2CC022FF16C0468114
:101540005781248135814217530744F4A081B1812A
:101550009D012F5F3F4F318320838C9326813781FC
:101560002F5F3F4F3783268314C08B01EC01FB01B3
:101570000084F185E02D0995892BE1F6D8011696B6
:101580008D919C911797019617969C938E93169721
:10159000CE01DF91CF911F910F910895AEE0B0E0A1
:1015A000E4EDFAE00C947B090D891E898F89988DF2
:1015B00026E02C831A83098397FF02C080E090E81D
:1015C00001979E838D83AE01455E5F4F698D7A8D55
:1015D000CE0101960E94D6054D815E8157FD0AC05D
:1015E0002F813885421753070CF49A01F801E20F56
:1015F000F31F10822E96E4E00C949709FA01AA27B3
:10160000283051F1203181F1E8946F936E7F6E5F45
:101610007F4F8F4F9F4FAF4FB1E03ED0B4E03CD0F3
:10162000670F781F891F9A1FA11D680F791F8A1FD6
:10163000911DA11D6A0F711D811D911DA11D20D03D
:1016400009F468943F912AE0269F11243019305DF7
:101650003193DEF6CF010895462F4770405D4193E8
:10166000B3E00FD0C9F7F6CF462F4F70405D4A3335
:1016700018F0495D31FD4052419302D0A9F7EACFFD
:10168000B4E0A6959795879577956795BA95C9F72C
:1016900000976105710508959B01AC010A2E06941F
:1016A0005795479537952795BA95C9F7620F731FD8
:0C16B000841F951FA01D0895F894FFCF23
:1016BC0001040F09090F000000004F6E20004F6657
:1016CC0066007465726D6F73746174005465737425
:1016DC000D0A0025640D0A00543D252E3366004882
:0616EC003D2573004300E0
:00000001FF
