S00F00004C4344546573742E73726563A2
S11300000C9434000C9451000C9451000C94510045
S11300100C9451000C9451000C9451000C94510018
S11300200C9451000C9451000C9451000C94510008
S11300300C9451000C9451000C9451000C945100F8
S11300400C9451000C9451000C9451000C945100E8
S11300500C9451000C9451000C9451000C945100D8
S11300600C9451000C94510011241FBECFEFD8E022
S1130070DEBFCDBF11E0A0E0B1E0E8EFF2E002C0E6
S113008005900D92AC31B107D9F721E0ACE1B1E0B4
S113009001C01D92AE31B207E1F70E9444010C94F5
S11300A07A010C940000662311F02E9A01C02E9858
S11300B09AB1906F9AB99BB1282F2F6092239BB964
S11300C09BB1807F892B8BB92F9A82E08A95F1F7B7
S11300D000C02F9882E08A95F1F700C00895CF936D
S11300E0C82F80911D01882399F08FEC97E0019728
S11300F0F1F700C0000041E060E08C2F0E94530043
S113010040E060E08C2F8295807F0E94530006C0FF
S113011040911C0160E08C2F0E945300CF91089500
S1130120CF93C82F80911D01882399F08FEC97E01D
S11301300197F1F700C0000041E061E08C2F0E94BC
S1130140530040E061E08C2F8295807F0E94530031
S113015006C040911C0161E08C2F0E945300CF9196
S1130160089510921D0110921C01279A269A8FE27D
S113017095E70197F1F700C0000080E30E946F004B
S113018087E090E20197F1F700C0000080E30E944D
S11301906F008FEC97E00197F1F700C0000080E357
S11301A00E946F008FEC97E00197F1F700C0000008
S11301B08FEC97E00197F1F700C0000080E20E9405
S11301C06F008FEC97E00197F1F700C0000081E029
S11301D080931D0180931C0188E20E946F008FECC4
S11301E097E00197F1F700C0000088E00E946F00DB
S11301F08FEC97E00197F1F700C0000081E00E94C6
S11302006F0087E496E20197F1F700C0000086E0F2
S11302100E946F008FEC97E00197F1F700C0000097
S11302208CE00E946F008FEC97E00197F1F700C01B
S1130230000008950F931F93CF93FC0180818823BE
S113024089F08F01C0E0CF5F0E9490008FEC97E0AF
S11302500197F1F700C00000F801EC0FF11D808157
S11302608111F1CFCF911F910F91089590E4699F6F
S1130270800D112480680E946F008FEC97E0019735
S1130280F1F700C00000089584B1866084B985B197
S1130290866085B90E94B1002FEF89E698E121506C
S11302A080409040E1F700C0000085E40E94900087
S11302B084E60E94900087E50E94900080E20E94FC
S11302C0900080E091E00E941A0161E080E00E94C9
S11302D036018CE091E00E941A012FEF89E698E143
S11302E0215080409040E1F700C0000085B1897F33
S10B02F085B9FFCFF894FFCF9C
S11302F8456C656B74726F6E696B6100646C612028
S10F030877737A7973746B696368000082
S9030000FC
