S01A00005573617274496E74657272757074546578742E7372656389
S11300000C942A000C9447000C9447000C9447006D
S11300100C9447000C9447000C9447000C94470040
S11300200C9447000C9447000C9447000C94470030
S11300300C9447000C94D2010C9447000C94470094
S11300400C9447000C9447000C9447000C94470010
S11300500C94470011241FBECFE5D8E0DEBFCDBF0E
S113006010E0A0E6B0E0E6E3F4E002C005900D92F3
S1130070A836B107D9F720E0A8E6B0E001C01D9288
S1130080A038B207E1F70E9498010C9419020C946D
S1130090000060E070E0E1E0F0E0962F9F01062EA2
S11300A002C0220F331F0A94E2F7209528BB85E093
S11300B08A95F1F7000026B330E02095309524FDB1
S11300C010C045E050E081E026B330E02095309543
S11300D0042E02C0359527950A94E2F720FF07C045
S11300E001C080E08F5F990F990F890F08958F5F8A
S11300F04F5F5F4F843041F76F5F7F4F643071050E
S113010061F680E00895CF930E944900C82F8823A8
S1130110D9F30E9449008111FCCF2FEF86E791E0CB
S1130120215080409040E1F700C000008C2FCF9117
S113013008958FE087BB0895CF9380916900882349
S113014071F060E080E00E94E300C82F60E080E08E
S11301500E94E300C07F82958F708C2B04C060E006
S113016080E00E94E300CF910895CF93DF93C82FDE
S1130170D62F411105C008C08AE68A95F1F700C060
S11301800E949C008823C4F3D998DD2311F0DA9AE5
S113019001C0DA988AB3806F8ABB8BB39C2F9F60AF
S11301A089238BBB8BB3C07FC82BCBBBD89A85E08C
S11301B08A95F1F70000D89885E08A95F1F7000058
S11301C0DF91CF910895CF93C82F611105C008C066
S11301D08AE68A95F1F700C00E949C008823C4F344
S11301E0D99ACC2311F0DA9A01C0DA988AB38F70C5
S11301F08ABBD89A95E09A95F1F7000089B3D8980C
S113020095E09A95F1F70000CF910895CF93C82F08
S113021080916900882369F041E060E08C2F0E949E
S1130220B50040E060E08C2F8295807F0E94B5008D
S113023006C04091680060E08C2F0E94B500CF9109
S11302400895CF93C82F80916900882369F041E015
S113025061E08C2F0E94B50040E061E08C2F829514
S1130260807F0E94B50006C04091680061E08C2F39
S11302700E94B500CF910895109269001092680011
S1130280D09AD19AD29A8FE59AEE0197F1F700C0ED
S1130290000080E30E9406018FE090E40197F1F7EB
S11302A000C0000080E30E9406018FE891E00197FE
S11302B0F1F700C0000080E30E9406018FE99FE08F
S11302C00197F1F700C0000080E20E9406018FE967
S11302D09FE00197F1F700C0000081E0809369007E
S11302E08093680088E20E94060188E00E9406016B
S11302F081E00E94060186E00E9406018CE00E94D3
S1130300060108950F931F93CF93FC0180818823E6
S113031059F08F01C0E0CF5F0E942101F801EC0F7A
S1130320F11D80818111F7CFCF911F910F91089515
S113033084E081BB0E9499000E943C010E94FF015D
S113034080E690E00E940A027894579A0CE610E046
S11303500E944900882379F00E948300C82F8A30C4
S113036020F480E38C0F0E940602C03121F485E65C
S113037090E00E940A0280916A00882349F3109257
S11303806A00F8018081823631F0843731F0813699
S1130390F9F6929ADDCF9298DBCF8DE690E00E9439
S11303A08201D6CF1F920F920FB60F9211248F9312
S11303B09F93EF93FF938CB18D3069F0E0916B00C4
S11303C0E431A0F491E09E0F90936B00F0E0E459C7
S11303D0FF4F80830BC0E0916B00F0E0E459FF4FC6
S11303E0108210926B0081E080936A00FF91EF917C
S11303F09F918F910F900FBE0F901F90189588E1D9
S11304008AB986E880BD87E689B908955D9BFECFE9
S11304108CB90895CF93DF93EC018881882331F060
S113042021960E94060289918111FBCFDF91CF9121
S10904300895F894FFCFCB
S10B043654657374000D0A0003
S9030000FC
