:100000000C948A010C949F010C949F010C949F0105
:100010000C949F010C949F010C949F010C949F01E0
:100020000C949F010C949F010C949F010C949F01D0
:100030000C949F010C949F010C949F010C949F01C0
:100040000C949F010C949F010C949F010C949F01B0
:100050000C949F010C949F010C949F010C949F01A0
:100060000C949F010C949F01000000000000000010
:100070005F000000000700070000147F147F1400D9
:10008000242A7F2A1200231308646200364955226D
:100090005000000003000000001C2241000000414D
:1000A000221C000014083E08140008083E0808003E
:1000B00000503000000008080808080000606000D8
:1000C00000002010080402003E5149453E00004255
:1000D0007F4000004261514946002141454B3100BB
:1000E0001814127F10002745454539003C4A4949FC
:1000F00030000371090503003649494936000649B5
:1001000049291E0000363600000000563600000067
:100110000814224100001414141414000041221485
:100120000800020151090600324979413E007E1162
:1001300011117E007F49494936003E41414122006C
:100140007F4141413E007F49494941007F090909FA
:1001500001003E4141497A007F0808087F000041C4
:100160007F4100002040413F01007F0814224100F0
:100170007F40404040007F020C027F007F04081057
:100180007F003E4141413E007F09090906003E4192
:1001900051215E007F09192946004649494931002D
:1001A00001017F0101003F4040403F001F204020EF
:1001B0001F003F4038403F006314081463000708E5
:1001C00070080700615149454300007F414100002C
:1001D0000204081020000041417F000004020102D7
:1001E0000400404040404000000102040000205450
:1001F000545478007F484444380038444444200034
:10020000384444487F00385454541800087E09018B
:10021000020018A4A4A47C007F080404780000480D
:100220007D4000000000847D00007F102844000015
:1002300000417F4000007C04780478007C080404BE
:100240007800384444443800FC242424180018243E
:100250002428FC007C08040408004854545420005E
:10026000043F444020003C4040207C001C204020B3
:100270001C003C4030403C004428102844001CA096
:10028000A0A07C004464544C4400000836410000A7
:1002900000007F0000000041360800001008081030
:1002A0000800000000000000205454D478003844B6
:1002B00046452000385454D4180000497F440000BB
:1002C0007C080605780038444645380048545655A1
:1002D00020004464564D44004464554C44007E1153
:1002E00011917E003C42464324007F4949C94100A8
:1002F0007F50484440007E040B107E003C42464341
:100300003C004C52565322004266534A4600426219
:10031000534A460011241FBECFEFD8E0DEBFCDBF49
:1003200011E0A0E0B1E0E0E2F5E002C005900D923E
:10033000A634B107D9F70E946B020C948E020C947C
:1003400000005D98882311F05A9A01C05A9888E0FD
:1003500090E020E8362F322311F05B9A01C05B98C1
:100360005C9A000000000000000000000000000097
:1003700000005C982695019769F75D9A0895549A54
:10038000539A529A559A8FE295E70197F1F700C078
:1003900000005D9A61E280E00E94A10163E180E0DB
:1003A0000E94A10166E080E00E94A10165EA80E070
:1003B0000E94A10160E280E00E94A1016CE080E067
:1003C0000C94A101CF93DF93C0E06C2F606480E0B8
:1003D0000E94A10160E880E00E94A101D4E560E0F4
:1003E00081E00E94A101D150D1F7CF5FC63069F7FB
:1003F000DF91CF910895AF92BF92CF92DF92EF92AB
:10040000FF920F931F93CF93DF93CDB7DEB7629721
:100410000FB6F894DEBF0FBECDBF8C01F62E82E181
:10042000E0E0F1E0DE01119601900D928A95E1F78E
:10043000642F606480E00E94A1016F2D606880E0FD
:100440000E94A101B12C86E0A82EF801EB0DF11D50
:10045000808190E0009771F1FE01319620E030E05C
:10046000419150E08417950731F02F5F3F4F2231C3
:100470003105B1F703C0C90180589F4FA89E700194
:10048000A99EF00C112480ECE81AF108C12CD12CA3
:10049000F701EC0DFD1DE859FF4F649181E00E94CA
:1004A000A1018FEFC81AD80A86E0C816D10481F7D7
:1004B000B394CBCF62960FB6F894DEBF0FBECDBF1C
:1004C000DF91CF911F910F91FF90EF90DF90CF9030
:1004D000BF90AF9008950E94BF010E94E20140E0EA
:1004E00066E082E191E00E94FB0141E068E18FE17A
:1004F00091E00E94FB0143E066E088E291E00E9407
:10050000FB0144E06EE184E391E00E94FB0145E0E1
:1005100061E088E391E00E94FB01FFCFF894FFCFF8
:10052000B9E6EAB3F1F39C9FBFA5C6CAA3D1D38CA9
:100530008FAF4B757273204156522D474343004194
:100540004258595A203A290057799C776965746C4A
:1005500061637A004C4344006F64204E6F6B69699D
:06056000203531313000AE
:00000001FF
