S0120000557361727454656B73742E73726563F8
S11300000C942A000C9447000C9447000C9447006D
S11300100C9447000C9447000C9447000C94470040
S11300200C9447000C9447000C9447000C94470030
S11300300C9447000C9447000C9447000C94470020
S11300400C9447000C9447000C9447000C94470010
S11300500C94470011241FBECFE5D8E0DEBFCDBF0E
S113006020E0A6E6B0E001C01D92A237B207E1F796
S113007010E0A0E6B0E0ECEEF6E002C005900D92D0
S1130080A636B107D9F70E9443010C9474030C946B
S11300900000CF9380916700882371F060E080E0D6
S11300A00E949000C82F60E080E00E949000C07F12
S11300B082958F708C2B04C060E080E00E949000D9
S11300C0CF910895CF93DF93C82FD62F411105C048
S11300D008C08AE68A95F1F700C00E944900882387
S11300E0C4F3D998DD2311F0DA9A01C0DA988AB3FF
S11300F0806F8ABB8BB39C2F9F6089238BBB8BB390
S1130100C07FC82BCBBBD89A85E08A95F1F7000055
S1130110D89885E08A95F1F70000DF91CF91089592
S1130120CF93C82F611105C008C08AE68A95F1F7FC
S113013000C00E9449008823C4F3D99ACC2311F04B
S1130140DA9A01C0DA988AB38F708ABBD89A95E09C
S11301509A95F1F7000089B3D89895E09A95F1F74C
S11301600000CF910895CF93C82F80916700882312
S113017069F041E060E08C2F0E94620040E060E0A2
S11301808C2F8295807F0E94620006C04091660099
S113019060E08C2F0E946200CF910895CF93C82F06
S11301A080916700882369F041E061E08C2F0E9410
S11301B0620040E061E08C2F8295807F0E946200A3
S11301C006C04091660061E08C2F0E946200CF91CE
S11301D008950E94CE0080E090E008951092670098
S11301E010926600D09AD19AD29A8FE59AEE01972E
S11301F0F1F700C0000080E30E94B3008FE090E4B8
S11302000197F1F700C0000080E30E94B3008FE87B
S113021091E00197F1F700C0000080E30E94B30071
S11302208FE99FE00197F1F700C0000080E20E948F
S1130230B3008FE99FE00197F1F700C0000081E06F
S1130240809367008093660088E20E94B30088E090
S11302500E94B30081E00E94B30086E00E94B300D4
S11302608CE00E94B300089590E4699F800D1124EE
S113027080680E94B300089560E070E089EE90E029
S11302800E94A2010895CF93DF93CDB7DEB76097A4
S11302900FB6F894DEBF0FBECDBF0E94EE000E94E1
S11302A03C018EE00E94B3000E949B017E0181E12B
S11302B0E80EF11CFE01319680E28193EE16FF06F2
S11302C0E1F700E05F9BFECF1CB11D3071F0812F80
S11302D090E00E94ED01E1E0F0E0EC0FFD1FE00F83
S11302E0F11D10830F5F003169F760E080E00E9428
S11302F034018E010F5F1F4FF80181918F010E941D
S1130300CE00E016F106C1F761E080E00E943401FE
S11303108E010F5F1F4F80E20E94CE0080E2F80141
S113032081938F01EE15FF05B1F761E080E00E9433
S1130330340100E0C7CF88E18AB986E880BD87E64A
S113034089B908950F931F93CF93DF93009731F4E6
S11303506115710519F480E090E03AC08B01EC015D
S11303606EE070E081E090E00E94F401FC01892BD2
S113037091F380E883830115110571F013870287D7
S113038081E883838091680090916900892B21F42E
S1130390F0936900E09368002097C9F0D187C08783
S11303A083818260838380916A0090916B00892BA2
S11303B071F4F0936B00E0936A0080916C0090916B
S11303C06D00892B21F4F0936D00E0936C00CF0154
S11303D0DF91CF911F910F91089560916A00709100
S11303E06B000E94380308950F931F93CF93DF93FC
S11303F0869F8001879F100D969F100D1124C801C0
S11304000E941002EC01009729F0A80160E070E05E
S11304100E943103CE01DF91CF911F910F91089576
S11304200F931F93CF93DF938230910510F482E0F2
S113043090E0E0917000F091710020E030E0A0E0E5
S1130440B0E0309719F1408151810281138148173E
S11304505907C8F08417950769F4109731F012967C
S11304600C93129713961C9327C00093700010935B
S1130470710022C02115310519F04217530718F4F1
S11304809A01BD01EF01DF01F801DBCF2115310530
S1130490F9F0281B390B2430310580F48A819B81C3
S11304A06115710521F0FB019383828304C090934D
S11304B0710080937000FE01329644C0FE01E20F89
S11304C0F31F8193919322503109398328833AC0D1
S11304D020916E0030916F00232B41F42091620033
S11304E03091630030936F0020936E002091600080
S11304F0309161002115310541F42DB73EB740918B
S1130500640050916500241B350BE0916E00F0915E
S11305106F00E217F307A0F42E1B3F0B28173907CF
S113052078F0AC014E5F5F4F2417350748F04E0F4B
S11305305F1F50936F0040936E008193919302C0AC
S1130540E0E0F0E0CF01DF91CF911F910F9108958A
S1130550CF93DF93009709F481C0FC013297138293
S11305601282A0917000B0917100109781F42081E3
S11305703181820F931F20916E0030916F002817F4
S1130580390751F5F0936F00E0936E0067C0ED01F9
S113059020E030E0CE17DF0740F44A815B819E0102
S11305A041155105F1F0EA01F5CFD383C2834081AF
S11305B05181840F951FC817D90759F488819981EF
S11305C0840F951F0296918380838A819B819383F4
S11305D082832115310529F4F0937100E0937000B2
S11305E03DC0E901FB83EA8349915991C40FD51FAA
S11305F0EC17FD0761F480819181840F951F0296A9
S1130600E90199838883828193819B838A83E0E0D3
S1130610F0E012968D919C911397009719F0FD01CB
S1130620DC01F7CF8D919C9111979D012E5F3F4F77
S1130630820F931F20916E0030916F0028173907A5
S113064069F4309729F4109271001092700002C07E
S113065013821282B0936F00A0936E00DF91CF914A
S11306600895DC0101C06D9341505040E0F70895B6
S11306700F931F93CF93DF93FB01238121FD03C0CD
S11306808FEF9FEF2CC022FF16C046815781248133
S113069035814217530744F4A081B1819D012F5F36
S11306A03F4F318320838C93268137812F5F3F4FC7
S11306B03783268314C08B01EC01FB010084F18590
S11306C0E02D0995892BE1F6D80116968D919C9120
S11306D01797019617969C938E931697CE01DF91E8
S10F06E0CF911F910F910895F894FFCF63
S10906EC00007200200072
S9030000FC
